S0160000697A6D4C656E2D6D6567613132382E737265633D
S11300004BC2000073C2000071C200006FC2000046
S11300106DC200006BC2000069C2000067C200002C
S113002065C200000C94732C61C200005FC2000022
S11300305DC200005BC2000059C200000C94852A16
S113004055C2000053C200000C94512B0C947D2B1C
S11300504DC200004BC2000049C2000047C200006C
S113006045C2000043C2000041C200003FC200007C
S11300703DC200003BC2000039C2000037C200008C
S113008035C2000033C2000031C20000756E6B6ED1
S11300906F77206572726F720D0A0D0A000D0A00E7
S11300A00D0A002065784C3D0020426173653D00D7
S11300B0205370656564436F723D002065784E3D42
S11300C0000D0A7371426173653D000D0A000D0A4B
S11300D0000D0A003B204C3D00B920747562653A5E
S11300E02000526573746172742073797374656D42
S11300F00D0A0D0A00F1EAEEF0EEF1F2E83A00CA58
S1130100EEF0F0E5EAF6E8FF00F1E8E3EDE0EBEE0F
S1130110E23A2000C2F0E5ECFF20E8EDF2E5F02E33
S113012000E8EDF2E5F0E2E0EB3A00C7E0F9E8F2CE
S1130130EDFBE900EDE0E6ECE8F2E520222B2200FD
S1130140E4EBFF20F3E4E0EBE5EDE8FF003C003AEC
S11301500053510045646974206C656E00C0F0F56D
S1130160E8E220EFF3F1F20056696577002D3230B2
S113017000CCE5EDFE2DE2F0E5ECFF00323000F3BB
S1130180F1F2E0EDEEE2EBE5ED00CDEEE2FBE9208D
S1130190EFE0F0EEEBFC203A002A2AD1EEF5F0E095
S11301A0EDE5EDEE2A2A005351313C2D3E5351002A
S11301B0D3F1F2E0EDEEE2EAE020E1E0E7FB00EF6C
S11301C0E0F0EEEBFF202020202020202020200043
S11301D0CEF8E8E1EAE020E2E2EEE4E020202020AC
S11301E000C2E2E5E4E8F2E520EFE0F0EEEBFC3AF1
S11301F0004552524F52202020003A2000533A002A
S11302003ED3F1F22E20EFE0F0EEEBFC2020202094
S1130210003ED3F1F22E20E2F0E5ECE5EDE82020FB
S113022020003EC8EDF2E5E3F02EF1E8E3EDE0EB6B
S1130230E020003EC7E0F92E20E8EDF2E5F0E2E030
S1130240EB2020003EC4E8F1F22E205351313C2D26
S11302503E535135003EC4E8F1F22E205351313C57
S11302602D3E535134003EC4E8F1F22E2053513157
S11302703C2D3E535133003EC4E8F1F22E2053513D
S1130280313C2D3E535132003ED1E1F0EEF120E0FD
S1130290F0F5E8E2E0202020003EEAEEF0F02E2027
S11302A0F1EAEEF0EEF1F2E820003EEAEEF0F02E94
S11302B020E4EBE8EDFB20202020003ECFF0EEF11F
S11302C0EC2E20E0F0F5E8E22020200002020306F4
S11302D0005F185D142513251325132613EE172527
S11302E0136B136014AB13D01385142513F5130289
S11302F01525131015331950191E152513041983C8
S11303001525139115DB19FF19A41525137919DB8C
S1130310152513251325132513251325132513E953
S1130320152513EC159C1AC11AE61A2513641A072D
S11303301625132513251325132513251325131506
S1130340162513EF1C441C751CB51C2513091C230E
S113035016251331165C1E6F1E271E2513BF1D257F
S11303601325133916891FB21F4C162513B81E8A7C
S11303701625137C167C166C167C16251328148AF5
S1130380162513981666204220A6162513FF1F8AE9
S1130390162513CC16EE201121DF162513AD208A65
S11303A016251347178221A0212E17251359218AB8
S11303B01625132513251325132513251325132576
S11303C01325132513251325132513251325132569
S11303D013001F1D1F1E1F1E1F1F1E1F1E1F001F79
S11303E01C1F1E1F1E1F1F1E1F1E1F001F1C1F1E43
S11303F01F1E1F1F1E1F1E1F001F1C1F1E1F1E1F30
S11304001F1E1F1E1F0609090600000000060F0F0D
S11304100600000000C8C9CACBD7D8D9DADBDCEDA6
S1130420FDEEEFF0F1F2F4CCCDCECFD0D1D2D3D4D7
S1130430D5D6DDDEDFE7E8E9EAEBECF3F5A2F6F783
S1130440F8F9FAFBFCFEFF202020202020B5202014
S1130450202020202041A042A1E045A3A4A5A64B32
S1130460A74D484FA8504354A9AA58E1ABACE2ADFC
S1130470AE62AFB0B161B2B3B4E365B6B7B8B9BAFE
S1130480BBBCBD6FBE7063BF79E478E5C0C1E6C292
S1130490C3C4C5C6C700CD2911241FBECFEFD0E108
S11304A0DEBFCDBF11E0A0E0B1E0E4E9FFE500E08C
S11304B00BBF02C007900D92AA33B107D9F722E00F
S11304C0AAE3B1E001C01D92AB30B207E1F712E03C
S11304D0CCE4D2E004C02197FE010E94DC2DCB3491
S11304E0D107C9F70E94B2120C94C82F89CDCF93BB
S11304F0DF9382E090E00E94952FEC0190934001FD
S113050080933F0180E090E00E94952F90933E01FC
S113051080933D01CC32D14018F48C32914040F0AC
S11305201092400110923F0110923E0110923D0141
S113053060913F017091400182E090E00E94AB2FF6
S113054060913D0170913E0180E090E00E94AB2FEC
S1130550DF91CF910895AF92CF92DF92EF92FF9205
S11305600F931F93CF93DF93CDB7DEB72B970FB6BF
S1130570F894DEBF0FBECDBF89836A834B832C837F
S11305800D83FF82EE82D986C88681E08A87AB8696
S113059080913F01909140012BE0289FB001299F59
S11305A0700D11246C5F7F4F4BE050E0CE0101963B
S11305B00E94AF2F80913F019091400101968C32AF
S11305C021E0920728F49093400180933F0104C0F6
S11305D01092400110923F0180913D0190913E01A3
S11305E08C3221E0920728F4019690933E01809387
S11305F03D011FB7F89460913F017091400182E082
S113060090E00E94AB2F60913D0170913E0180E02B
S113061090E00E94AB2F1FBF2B960FB6F894DEBF5D
S11306200FBECDBFDF91CF911F910F91FF90EF903F
S1130630DF90CF90AF9008955F926F927F928F92E8
S11306409F92AF92BF92CF92DF92EF92FF920F935D
S11306501F93CF93DF936C01C0913F01D091400170
S113066000913D0110913E0101151105A9F1E12C04
S1130670F12C812C912C54010F2EFCE25F2EF02DD5
S1130680662463940F2EFBE07F2EF02D209711F447
S1130690C52DD62D2197015011097C9EC0017D9E48
S11306A0900D1124835F9F4F0E948D2F813081F420
S11306B07C9EC0017D9E900D1124855F9F4F0E94FA
S11306C0952F880E991EA11CB11CFFEFEF1AFF0A8B
S11306D001151105D9F605C0E12CF12C812C912CC2
S11306E054018FB7F894F60180829182A282B3827A
S11306F08FBFC701DF91CF911F910F91FF90EF90B2
S1130700DF90CF90BF90AF909F908F907F906F902D
S11307105F9008951092400110923F0110923E01A3
S113072010923D0160E070E082E090E00E94AB2F07
S113073060913D0170913E0180E090E00C94AB2FFC
S11307400895CF93DF9300D0CDB7DEB71A82198214
S11307508FB7F89494B199838FBF85B1982F937014
S11307608A818C7F892B8A8389819A8190933C0129
S113077080933B0181E080933A0117B887ED86B9F5
S11307800F900F90DF91CF910895CF939FB7F89476
S113079080913A01882341F020913B0130913C0142
S11307A010923A0181E001C080E09FBF8823B1F03C
S11307B02939314098F4CFB7F89460913F01709192
S11307C0400182E090E00E94AB2F60913D01709166
S11307D03E0180E090E00E94AB2FCFBFCF910895FF
S11307E00F931F93CF93DF93CDB7DEB72B970FB63D
S11307F0F894DEBF0FBECDBF8EEE9CE00E94952F15
S11308008C018EE090E00E94BB2AFC0184E390E01E
S11308109483838385E390E09683858383E390E0E8
S11308209087878381E090E0928781871283018398
S1130830A098A581B6812C91018402C0880F991FCC
S11308400A94E2F7822B8C938FE99FE00197F1F7EA
S113085000C00000A781B0852C9130E0818592858D
S11308602823392381E0232B09F480E085878083C2
S1130870882329F0818192819487838702C014861A
S11308801386F0938001E0937F018EE090E00E9454
S1130890BB2AFC0184E390E09483838385E390E0A6
S11308A09683858383E390E09087878382E090E05A
S11308B09287818712830183A198A581B6812C91A7
S11308C081E090E0018402C0880F991F0A94E2F746
S11308D0822B8C938FE99FE00197F1F700C0000011
S11308E0A781B0852C9130E0818592852823392316
S11308F081E0232B09F480E085878083882329F015
S1130900818192819487838702C014861386F09331
S11309108201E09381018EE090E00E94BB2AFC01F9
S113092084E390E09483838385E390E096838583D6
S113093083E390E09087878384E090E092878187C7
S113094012830183A298A581B6812C9181E090E065
S1130950018402C0880F991F0A94E2F7822B8C93BA
S11309608FE99FE00197F1F700C00000A781B085EF
S11309702C9130E0818592852823392381E0232B33
S113098009F480E085878083882329F0818192811E
S11309909487838702C014861386F0938401E093BE
S11309A083018EE090E00E94BB2AFC0184E390E086
S11309B09483838385E390E09683858383E390E047
S11309C09087878388E090E09287818712830183F0
S11309D0A398A581B6812C9181E090E0018402C0A6
S11309E0880F991F0A94E2F7822B8C938FE99FE07A
S11309F00197F1F700C00000A781B0852C9130E089
S1130A00818592852823392381E0232B09F480E012
S1130A1085878083882329F08181928194878387C5
S1130A2002C014861386F0938601E09385018EE05C
S1130A3090E00E94BB2AFC0184E390E094838383CA
S1130A4085E390E09683858383E390E090878783B2
S1130A5080E190E09287818712830183A498A58125
S1130A60B6812C9181E090E0018402C0880F991F27
S1130A700A94E2F7822B8C938FE99FE00197F1F7B8
S1130A8000C00000A781B0852C9130E0818592855B
S1130A902823392381E0232B09F480E08587808390
S1130AA0882329F0818192819487838702C01486E8
S1130AB01386F0938801E093870181E0809310010D
S1130AC080913D0190913E01892B59F480E090E0A2
S1130AD00E94952F892B29F4109200021092FF0195
S1130AE01EC080913F0190914001009711F0019741
S1130AF002C08BE291E02BE0289FB001299F700D8A
S1130B0011246C5F7F4F4BE050E0CE0101960E94B0
S1130B107D2F8E819F81909300028093FF012B96FD
S1130B200FB6F894DEBF0FBECDBFDF91CF911F91FA
S1130B300F9108952F923F925F926F927F928F92BE
S1130B409F92AF92BF92CF92DF92EF92FF920F9358
S1130B501F93CF93DF930F2EFFE7EF2EF1E0FF2ECD
S1130B60F02D01E411E00F2EF9E82F2EF1E03F2ED5
S1130B70F02DA801D7016AE071E0ED91FC91119785
S1130B806083ED91FD9187819085EC018881282F08
S1130B9030E08185928582239323892B99F0838584
S1130BA09485218132818217930730F401969487CA
S1130BB0838782179307A0F08585811111C07587FB
S1130BC070830EC083859485009729F001979487DC
S1130BD08387892B29F48585882311F01586108253
S1130BE0FA0180819181009719F0019791838083A4
S1130BF04E5F5F4FA215B30509F0BFCF809110017E
S1130C00882309F401C2813009F059C0EFE7F1E00B
S1130C10A081B1811D969C910280F381E02D858590
S1130C20882339F1CBC1C0E0D0E0FE01EE0FFF1FF5
S1130C30EE0FFF1FEE0FFF1FED5AFE4F10821182C1
S1130C40128213821482158216821782D8011D9291
S1130C501D928D0180EF9CE00E94952F90931201CC
S1130C60809311012196C530D105F9F682E0809375
S1130C70100180917B0190917C01A0917D01B09144
S1130C807E01892B8A2B8B2B09F4BEC110927B0128
S1130C9010927C0110927D0110927E0110924F01FE
S1130CA010925001109251011092520110924B0176
S1130CB010924C0110924D0110924E01A5C1823048
S1130CC009F0A2C180917B0190917C01A0917D01EA
S1130CD0B0917E010097A105B105E1F4E0917F0197
S1130CE0F0918001858581110AC0A0918101B091A4
S1130CF082011D968C91882309F463C181C180818E
S1130D00811113C0E0918101F091820185858111E7
S1130D1058C10BC00196A11DB11D80937B01909316
S1130D207C01A0937D01B0937E010F2EFFE7CF2EAF
S1130D30F1E0DF2EF02D0F2EF0E35F2EF02DA12C2D
S1130D40B12C35014601E601E881F98180818111E8
S1130D5046C080917B0190917C01A0917D01B0916E
S1130D607E01892B8A2B8B2BD1F084E60E94AE2B3B
S1130D70852D0E94AE2B8AE30E94AE2B40917B010D
S1130D8050917C0160917D0170917E0186E00E940A
S1130D90ED2B8DE00E94AE2B8AE00E94AE2BF80171
S1130DA0808191812091110130911201318320833E
S1130DB0892BA9F480917B0190917C01A0917D0104
S1130DC0B0917E01F301EE0FFF1FEE0FFF1FEE0F38
S1130DD0FF1FED5AFE4F80839183A283B383F2E019
S1130DE0CF0ED11CD401ED91FC918081813099F515
S1130DF080917B0190917C01A0917D01B0917E0155
S1130E00F301EE0FFF1FEE0FFF1FEE0FFF1FED5A52
S1130E10FE4F84839583A683B783892B8A2B8B2BE0
S1130E20D1F084E40E94AE2B852D0E94AE2B8AE380
S1130E300E94AE2B40917B0150917C0160917D0119
S1130E4070917E0186E00E94ED2B8DE00E94AE2B16
S1130E508AE00E94AE2BBFEFAB1ABB0A53940E5F1D
S1130E601F4FC5E35C126DCF90E021E0D701ED91F7
S1130E70FD917D018585813009F4922F2E143F0464
S1130E80A9F7911139C080914B0190914C01A09127
S1130E904D01B0914E010097A105B10569F480ECB4
S1130EA094EDA1E0B0E080934B0190934C01A093AA
S1130EB04D01B0934E0120C00197A109B1098130C1
S1130EC09105A105B10549F080934B0190934C0124
S1130ED0A0934D01B0934E010FC010924B0110929C
S1130EE04C0110924D0110924E018AE08093FB0157
S1130EF081E08093100188C0E0918101F09182012A
S1130F008081813061F5E0917F01F09180018585D8
S1130F10811164C024C0E3E5F1E084859585A6854C
S1130F20B7854481558166817781841B950BA60B17
S1130F30B70BAC01BD01440F551F661F771F840F0B
S1130F40951FA61FB71FB695A7959795879580936C
S1130F504F0190935001A0935101B093520180919D
S1130F604F0190915001A0915101B09152018230F2
S1130F709105A105B10558F00197A109B109809324
S1130F804F0190935001A0935101B093520180916D
S1130F904F0190915001A0915101B09152010197DC
S1130FA0A105B10589F510924F01109250011092DC
S1130FB05101109252011092100126C0911133CEAA
S1130FC058CE81E090E0A0E0B0E080937B01909364
S1130FD07C01A0937D01B0937E01A7CE8091630133
S1130FE090916401A0916501B0916601892B8A2BCF
S1130FF08B2B09F490CF84EF91E0A0E0B0E0BCCF5C
S113100080818823F1F291CEDF91CF911F910F91CE
S1131010FF90EF90DF90CF90BF90AF909F908F9014
S11310207F906F905F903F902F900895AF92BF9202
S1131030DF92EF92FF920F931F93CF93DF93EC0114
S1131040D62E7A01890189ED90E00E94DD2B409132
S1131050FF01509100024F5F5F4F60E070E083E05A
S11310600E94ED2B84ED90E00E94DD2BAE0160E048
S113107070E085E00E94ED2B81ED90E00E94DD2B75
S1131080C2EFDCE00F2EFCEFAF2EFCE0BF2EF02D04
S1131090CE010E94952FAC0160E070E088E00E94D0
S11310A0ED2B80E20E94AE2B2296CA15DB0581F758
S11310B08EEC90E00E94DD2BC0E0D0E0FE01EE0F4C
S11310C0FF1FEE0FFF1FEE0FFF1FED5AFE4F408173
S11310D051816281738188E00E94ED2B80E20E943D
S11310E0AE2B2196C530D10549F78BEC90E00E94D8
S11310F0DD2BC0E0D0E0FE01EE0FFF1FEE0FFF1F5F
S1131100EE0FFF1FED5AFE4F4481558166817781B2
S113111088E00E94ED2B80E20E94AE2B2196C53020
S1131120D10549F781EC90E00E94DD2BDD208CF4A1
S11311308DE20E94AE2B8D2D992781950CF490950C
S1131140AC01052E000C660B770B82E00E94ED2BA0
S11311500BC080E20E94AE2B4D2DDD0C550B660BAF
S1131160770B82E00E94ED2B8BEB90E00E94DD2B4D
S11311704091F90150E060E070E082E00E94ED2BC4
S113118080EB90E00E94DD2B8DEE9CE00E948D2F81
S1131190482F880F550B660B770B84E00E94ED2BCC
S11311A089EA90E00E94DD2BA70160E070E085E011
S11311B00E94ED2B83EA90E00E94DD2BA80160E001
S11311C070E085E00E94ED2B80EA90E00E94DD2B28
S11311D08DE990E00E94DD2BDF91CF911F910F915B
S11311E0FF90EF90DF90BF90AF9008952F923F92C1
S11311F04F925F926F927F928F929F92AF92BF9223
S1131200CF92DF92EF92FF920F931F93CF93DF93CE
S1131210CDB7DEB7E6970FB6F894DEBF0FBECDBFED
S1131220B0901001B11094C73B014C010F2EF2EFA6
S1131230EF2EFCE0FF2EF02D06E011E00F2EF0E182
S1131240CF2EF1E0DF2EF02DC7010E94952FD8019B
S11312508D939D938D01B2E0EB0EF11C0C151D05D1
S113126099F7E6E0F1E0E280F380C080D180870165
S11312700C191D098DEE9CE00E948D2F080F111D85
S113128087FD1A951EA30DA3E3E5F1E084859585FA
S1131290A685B7854481558166817781841B950B2A
S11312A0A60BB70B89A39AA3ABA3BCA3408951890E
S11312B06289738984859585A685B78548175907FA
S11312C06A077B0708F483C080910A0190910B019F
S11312D08E199F099AA789A780899189A289B389C0
S11312E04485558566857785841B950BA60BB70BBE
S11312F08D8F9E8FAF8FB8A30D8D1E8D2F8D38A12E
S1131300EDA1FEA129A03AA04BA05CA0AF0160E032
S113131070E080E090E0DC01ECA75DA76EA77FA7FA
S113132088AB99ABAAABBBABA02EB12EC22ED32EE9
S1131330E12CF12C00E010E02CA53DA540E050E0AC
S113134060E070E080E090E00E94FF2C62015101B7
S1131350E12CF12C87012CA6BDA6CEA6DFA6E8AA17
S1131360F9AA0AAB1BABE12CF12C00E010E00E94BF
S1131370522D822F932F98A78FA389A59AA52FA1C9
S113138038A5821B930BD40111969C938E9311E084
S11313901093FB0188E08093F9018FA198A59195A2
S11313A0819591099093FE018093FD0184EFF301EF
S11313B080832FA138A549A55AA564EF8D919C91EE
S11313C035DE10931001BB24B3940C949812E3E51A
S11313D0F1E0448155816681778180A191A1A2A128
S11313E0B3A1481759076A077B0708F439C78091E6
S11313F0730190917401A0917501B0917601892BCC
S11314008A2B8B2B09F0A6C62BC7EBA5F0E0EE0FB9
S1131410FF1FEE0FFF1FEE0FFF1FE55AFE4F8081E7
S11314209181A281B381892B8A2B8B2BA9F0A3E50F
S1131430B1E016C0EBA5F0E0EE0FFF1FEE0FFF1FAB
S1131440EE0FFF1FE55AFE4F408151816281738187
S1131450452B462B472B21F48BA581508BA706C720
S11314601C960D911D912D913C911F97EBA5F0E0D9
S1131470EE0FFF1FEE0FFF1FEE0FFF1FED5AFE4F83
S1131480408151816281738104171507260737074C
S113149008F4F6C61C960D911D912D913C911F9751
S11314A0EBA5F0E0EE0FFF1FEE0FFF1FEE0FFF1F87
S11314B0E55AFE4F408151816281738104171507FB
S11314C02607370708F0DCC6D1C6419351936193D0
S11314D07193E817F907C9F7EBA5F0E0EE0FFF1FCA
S11314E0EE0FFF1FEE0FFF1FED5AFE4F008111811B
S11314F022813381409157015091580160915901E3
S113150070915A01401751076207730708F0E7C644
S1131510EBA5F0E0EE0FFF1FEE0FFF1FEE0FFF1F16
S1131520ED5AFE4F4081518162817381452B462BD8
S1131530472B09F4D4C68BA5853008F4A9C6CFC6B9
S113154000915701109158012091590130915A018D
S1131550EBA5F0E0EE0FFF1FEE0FFF1FEE0FFF1FD6
S1131560ED5AFE4F40815181628173810417150742
S11315702607370708F4E3C6EBA5F0E0EE0FFF1FDC
S1131580EE0FFF1FEE0FFF1FED5AFE4F40815181FA
S113159062817381452B462B472B09F4D0C68BA55A
S11315A0853008F4A5C6CBC60091570110915801A7
S11315B02091590130915A01EBA5F0E0EE0FFF1F85
S11315C0EE0FFF1FEE0FFF1FE55AFE4F40815181C2
S11315D062817381041715072607370708F4DFC6ED
S11315E0EBA5F0E0EE0FFF1FEE0FFF1FEE0FFF1F46
S11315F0E55AFE4F4081518162817381452B462B10
S1131600472B09F4CCC68BA590E0019605970CF402
S11316109FC6C5C600915F011091600120916101D0
S113162030916201EBA5F0E0EE0FFF1FEE0FFF1FFC
S1131630EE0FFF1FED5AFE4F40815181628173818D
S1131640041715072607370708F4D9C6EBA5F0E0F9
S1131650EE0FFF1FEE0FFF1FEE0FFF1FED5AFE4FA1
S11316604081518162817381452B462B472B09F4BC
S1131670C6C68BA5853008F49BC6C1C600915F0120
S1131680109160012091610130916201EBA5F0E0BD
S1131690EE0FFF1FEE0FFF1FEE0FFF1FE55AFE4F69
S11316A0408151816281738104171507260737072A
S11316B008F4D5C6EBA5F0E0EE0FFF1FEE0FFF1FF9
S11316C0EE0FFF1FE55AFE4F408151816281738105
S11316D0452B462B472B09F4C2C68BA590E00196F7
S11316E005970CF495C6BBC6EBA5F0E0EE0FFF1F03
S11316F0EE0FFF1FEE0FFF1FE55AFE4F0081118111
S11317002281338140915F015091600160916101B8
S113171070916201401751076207730708F0CFC642
S1131720EBA5F0E0EE0FFF1FEE0FFF1FEE0FFF1F04
S1131730E55AFE4F4081518162817381452B462BCE
S1131740472B09F4BCC68BA590E0019605970CF4D1
S11317508FC6B5C6EBA5F0E0EE0FFF1FEE0FFF1F1F
S1131760EE0FFF1FE55AFE4F008111812281338164
S113177040915701509158016091590170915A015B
S1131780401751076207730708F0C9C6EBA5F0E0DC
S1131790EE0FFF1FEE0FFF1FEE0FFF1FE55AFE4F68
S11317A04081518162817381452B462B472B09F47B
S11317B0B6C68BA590E0019605970CF489C6AFC612
S11317C04FE956E861E070E04D8F5E8F6F8F78A32C
S11317D080E09AE04D915D916D917D910D8D1E8D0E
S11317E02F8D38A1401751076207730728F44D8FD6
S11317F05E8F6F8F78A3982F8F5F873059F74D8D49
S11318005E8D6F8D78A14F3956486140710539F46A
S11318108AE08093FB0181E08093100189C6909354
S1131820F90181E08093FB019111A5C0EBA5F0E0E3
S1131830EE0FFF1FEA5FFE4F808191812091060128
S113184030910701821B930B9AA789A78D8D9E8DDA
S1131850AF8DB8A1EDA1FEA129A03AA04BA05CA038
S11318605C016D01E12CF12C87018CA7BDA6CEA6ED
S1131870DFA6E8AAF9AA0AAB1BAB8F01AE2EB12EE4
S1131880C12CD12CE12CF12C00E010E02CA53DA5BD
S11318904EA55FA560E070E080E090E00E94FF2C20
S11318A001E00E94AE2D2CA73CAB4DAB5EABB62F36
S11318B0A72FF82FE92F7A2F8F2F9E2F02E00E9457
S11318C0AE2DA22EB32EC42ED52EE62EF72E082F23
S11318D0192F2CA53CA94DA95EA96B2F7A2F8F2F08
S11318E09E2F0E94C72D62015101E12CF12C87012A
S11318F02CA6BDA6CEA6DFA6E8AAF9AA0AAB1BAB06
S1131900E12CF12C00E010E00E94522DA5E00E9491
S1131910D02D0F2EFAE0AF2EF02DB12CC12CD12CEE
S11319200E94522D822F932F98A78FA389A59AA541
S11319302FA138A5821B930BD40111969C938E93EF
S11319408BA58195F30180838FA198A591958195AD
S113195091099093FE018093FD012FA138A549A51B
S11319605AA560818D919C9161DB81E08093100187
S1131970BB24B394DDC5913009F0A1C0EBA5F0E020
S1131980EE0FFF1FEA5FFE4F8081918120910601D7
S113199030910701821B930B9AA789A78D8D9E8D89
S11319A0AF8DB8A1EDA1FEA129A03AA04BA05CA0E7
S11319B05C016D01E12CF12C87018CA7BDA6CEA69C
S11319C0DFA6E8AAF9AA0AAB1BAB8F01AE2EB12E93
S11319D0C12CD12CE12CF12C00E010E02CA53DA56C
S11319E04EA55FA560E070E080E090E00E94FF2CCF
S11319F001E00E94AE2D2CA73CAB4DAB5EABB62FE5
S1131A00A72FF82FE92F7A2F8F2F9E2F02E00E9405
S1131A10AE2DA22EB32EC42ED52EE62EF72E082FD1
S1131A20192F2CA53CA94DA95EA96B2F7A2F8F2FB6
S1131A309E2F0E94C72D62015101E12CF12C8701D8
S1131A402CA6BDA6CEA6DFA6E8AAF9AA0AAB1BABB4
S1131A50E12CF12C00E010E00E94522DA5E00E9440
S1131A60D02D0F2EFAE0AF2EF02DB12CC12CD12C9D
S1131A700E94522D822F932F98A78FA389A59AA5F0
S1131A802FA138A5820F931FD40111969C938E9396
S1131A908BA5F30180838FA198A59093FE01809379
S1131AA0FD012FA138A549A55AA560818D919C916E
S1131AB0BDDA81E080931001BB24B39439C595301D
S1131AC009F0A2C0EBA5F0E0EE0FFF1FE85FFE4FA8
S1131AD0808191812091060130910701821B930B33
S1131AE09AA789A78D8D9E8DAF8DB8A1EDA1FEA17A
S1131AF029A03AA04BA05CA05C016D01E12CF12C63
S1131B0087018CA7BDA6CEA6DFA6E8AAF9AA0AABD0
S1131B101BAB8F01AE2EB12EC12CD12CE12CF12C9C
S1131B2000E010E02CA53DA54EA55FA560E070E0A7
S1131B3080E090E00E94FF2C01E00E94AE2D2CA7D3
S1131B403CAB4DAB5EABB62FA72FF82FE92F7A2F06
S1131B508F2F9E2F02E00E94AE2DA22EB32EC42EF4
S1131B60D52EE62EF72E082F192F2CA53CA94DA90A
S1131B705EA96B2F7A2F8F2F9E2F0E94C72D620193
S1131B805101E12CF12C87012CA6BDA6CEA6DFA61F
S1131B90E8AAF9AA0AAB1BABE12CF12C00E010E097
S1131BA00E94522DA5E00E94D02D0F2EFAE0AF2EF8
S1131BB0F02DB12CC12CD12C0E94522D822F932FA9
S1131BC098A78FA389A59AA52FA138A5820F931F43
S1131BD0D40111969C938E938BA58F5FF301808320
S1131BE08FA198A59093FE018093FD012FA138A5A4
S1131BF049A55AA560818D919C9118DA81E0809362
S1131C001001BB24B39494C4923009F0A2C0EBA594
S1131C10F0E0EE0FFF1FEA5FFE4F8081918120917B
S1131C20080130910901821B930B9AA789A78D8D16
S1131C309E8DAF8DB8A1EDA1FEA129A03AA04BA025
S1131C405CA05C016D01E12CF12C87018CA7BDA681
S1131C50CEA6DFA6E8AAF9AA0AAB1BAB8F01AE2E6B
S1131C60B12EC12CD12CE12CF12C00E010E02CA5DC
S1131C703DA54EA55FA560E070E080E090E00E9485
S1131C80FF2C01E00E94AE2D2CA73CAB4DAB5EAB0C
S1131C90B62FA72FF82FE92F7A2F8F2F9E2F02E030
S1131CA00E94AE2DA22EB32EC42ED52EE62EF72ED4
S1131CB0082F192F2CA53CA94DA95EA96B2F7A2FAB
S1131CC08F2F9E2F0E94C72D62015101E12CF12C10
S1131CD087012CA6BDA6CEA6DFA6E8AAF9AA0AAB60
S1131CE01BABE12CF12C00E010E00E94522DA5E08A
S1131CF00E94D02D0F2EFAE0AF2EF02DB12CC12C66
S1131D00D12C0E94522D822F932F98A78FA389A59F
S1131D109AA52FA138A5820F931FD40111969C93E5
S1131D208E938BA5865FF30180838FA198A59093F2
S1131D30FE018093FD012FA138A549A55AA5608114
S1131D408D919C9173D981E080931001BB24B3944D
S1131D50EFC3963009F0A2C0EBA5F0E0EE0FFF1F31
S1131D60E85FFE4F80819181209108013091090143
S1131D70821B930B9AA789A78D8D9E8DAF8DB8A1D9
S1131D80EDA1FEA129A03AA04BA05CA05C016D01CD
S1131D90E12CF12C87018CA7BDA6CEA6DFA6E8AA6C
S1131DA0F9AA0AAB1BAB8F01AE2EB12EC12CD12CDC
S1131DB0E12CF12C00E010E02CA53DA54EA55FA57B
S1131DC060E070E080E090E00E94FF2C01E00E945F
S1131DD0AE2D2CA73CAB4DAB5EABB62FA72FF82F87
S1131DE0E92F7A2F8F2F9E2F02E00E94AE2DA22E74
S1131DF0B32EC42ED52EE62EF72E082F192F2CA580
S1131E003CA94DA95EA96B2F7A2F8F2F9E2F0E947C
S1131E10C72D62015101E12CF12C87012CA6BDA62E
S1131E20CEA6DFA6E8AAF9AA0AAB1BABE12CF12CDB
S1131E3000E010E00E94522DA5E00E94D02D0F2E4C
S1131E40FAE0AF2EF02DB12CC12CD12C0E94522DD2
S1131E50822F932F98A78FA389A59AA52FA138A580
S1131E60820F931FD40111969C938E938BA5855F4B
S1131E70F30180838FA198A59093FE018093FD01C7
S1131E802FA138A549A55AA560818D919C91CED8E2
S1131E9081E080931001BB24B3944AC3933009F0CA
S1131EA0A6C0EBA5F0E0EE0FFF1FE85FFE4F8081B8
S1131EB091812091080130910901821B930B9AA70B
S1131EC089A78D8D9E8DAF8DB8A1EDA1FEA129A00E
S1131ED03AA04BA05CA05C016D01E12CF12C8701C0
S1131EE08CA7BDA6CEA6DFA6E8AAF9AA0AAB1BABAF
S1131EF08F01AE2EB12EC12CD12CE12CF12C00E09F
S1131F0010E02CA53DA54EA55FA560E070E080E043
S1131F1090E00E94FF2C01E00E94AE2D2CA73CAB68
S1131F204DAB5EABB62FA72FF82FE92F7A2F8F2F4B
S1131F309E2F02E00E94AE2DA22EB32EC42ED52ECB
S1131F40E62EF72E082F192F2CA53CA94DA95EA922
S1131F506B2F7A2F8F2F9E2F0E94C72D6201510164
S1131F60E12CF12C87012CA6BDA6CEA6DFA6E8AAFB
S1131F70F9AA0AAB1BABE12CF12C00E010E00E94A3
S1131F80522DA5E00E94D02D0F2EFAE0AF2EF02D99
S1131F90B12CC12CD12C0E94522D822F932F98A7A3
S1131FA08FA389A59AA52FA138A5821B930BD401D1
S1131FB011969C938E939BA585EF891BF3018083D7
S1131FC08FA198A59195819591099093FE01809395
S1131FD0FD012FA138A549A55AA560818D919C9139
S1131FE025D881E080931001BB24B394A1C294301E
S1131FF009F0A6C0EBA5F0E0EE0FFF1FE85FFE4F6F
S1132000808191812091060130910701821B930BFD
S11320109AA789A78D8D9E8DAF8DB8A1EDA1FEA144
S113202029A03AA04BA05CA05C016D01E12CF12C2D
S113203087018CA7BDA6CEA6DFA6E8AAF9AA0AAB9B
S11320401BAB8F01AE2EB12EC12CD12CE12CF12C67
S113205000E010E02CA53DA54EA55FA560E070E072
S113206080E090E00E94FF2C01E00E94AE2D2CA79E
S11320703CAB4DAB5EABB62FA72FF82FE92F7A2FD1
S11320808F2F9E2F02E00E94AE2DA22EB32EC42EBF
S1132090D52EE62EF72E082F192F2CA53CA94DA9D5
S11320A05EA96B2F7A2F8F2F9E2F0E94C72D62015E
S11320B05101E12CF12C87012CA6BDA6CEA6DFA6EA
S11320C0E8AAF9AA0AAB1BABE12CF12C00E010E062
S11320D00E94522DA5E00E94D02D0F2EFAE0AF2EC3
S11320E0F02DB12CC12CD12C0E94522D822F932F74
S11320F098A78FA389A59AA52FA138A5821B930B16
S1132100D40111969C938E938BA58095F3018083C3
S11321108FA198A59195819591099093FE01809343
S1132120FD012FA138A549A55AA560818D919C91E7
S11321300E94160881E080931001BB24B394F8C177
S11321408CE890E00E94DD2B81E080931001F0C1C7
S1132150B12CEEC180910E0190910F018C199D0953
S11321609AA789A7E3E5F1E084819581A681B781E7
S113217040A151A162A173A1841B950BA60BB70BBF
S11321808D8F9E8FAF8FB8A30D8D1E8D2F8D38A18F
S1132190EDA1FEA129A03AA04BA05CA0AF0160E094
S11321A070E080E090E0DC01ECA75DA76EA77FA75C
S11321B088AB99ABAAABBBABA02EB12EC22ED32E4B
S11321C0E12CF12C00E010E02CA53DA540E050E00E
S11321D060E070E080E090E00E94FF2C6201510119
S11321E0E12CF12C87012CA6BDA6CEA6DFA6E8AA79
S11321F0F9AA0AAB1BABE12CF12C00E010E00E9421
S1132200522D822F932F98A78FA389A59AA52FA12A
S113221038A5820F931FD40111969C938E9311E0DD
S11322201093FB0189E08093F9018FA198A5909305
S1132230FE018093FD0184E0F30180832FA138A582
S113224049A55AA564E08D919C910E941608D3017A
S11322508C918093FA0110931001BB24B39468C14C
S113226082E08BA78BA5843008F4CFC8DE011196D9
S1132270CE014D96FD014FE956E861E070E025C9B5
S11322808BA58F5F8BA78BA5843008F4D3C8EECFC2
S1132290EBA5F0E0EE0FFF1FEE0FFF1FEE0FFF1F89
S11322A0ED5AFE4F40815181628173810091570143
S11322B0109158012091590130915A01401B510B42
S11322C0620B730B4D8F5E8F6F8F78A34D8D5E8D78
S11322D06F8D78A149835A836B837C8331C94FE91D
S11322E056E861E070E049835A836B837C8328C994
S11322F040915701509158016091590170915A01D0
S1132300EBA5F0E0EE0FFF1FEE0FFF1FEE0FFF1F18
S1132310ED5AFE4F0081118122813381401B510B04
S1132320620B730B4D8F5E8F6F8F78A34D8D5E8D17
S11323306F8D78A14D835E836F83788735C94FE9AC
S113234056E861E070E04D835E836F8378872CC923
S113235040915701509158016091590170915A016F
S1132360EBA5F0E0EE0FFF1FEE0FFF1FEE0FFF1FB8
S1132370E55AFE4F0081118122813381401B510BAC
S1132380620B730B4D8F5E8F6F8F78A34D8D5E8DB7
S11323906F8D78A14D8B5E8B6F8B788F3BC94FE926
S11323A056E861E070E04D8B5E8B6F8B788F32C99D
S11323B040915F01509160016091610170916201EF
S11323C0EBA5F0E0EE0FFF1FEE0FFF1FEE0FFF1F58
S11323D0ED5AFE4F0081118122813381401B510B44
S11323E0620B730B4D8F5E8F6F8F78A34D8D5E8D57
S11323F06F8D78A149875A876B877C873FC94FE9DE
S113240056E861E070E049875A876B877C8736C954
S113241040915F015091600160916101709162018E
S1132420EBA5F0E0EE0FFF1FEE0FFF1FEE0FFF1FF7
S1132430E55AFE4F0081118122813381401B510BEB
S1132440620B730B4D8F5E8F6F8F78A34D8D5E8DF6
S11324506F8D78A1498F5A8F6B8F7C8F45C94FE957
S113246056E861E070E0498F5A8F6B8F7C8F3CC9CE
S1132470EBA5F0E0EE0FFF1FEE0FFF1FEE0FFF1FA7
S1132480E55AFE4F408151816281738100915F0161
S1132490109160012091610130916201401B510B48
S11324A0620B730B4D8F5E8F6F8F78A34D8D5E8D96
S11324B06F8D78A14D875E876F87788B4BC94FE905
S11324C056E861E070E04D875E876F87788B42C97C
S11324D0EBA5F0E0EE0FFF1FEE0FFF1FEE0FFF1F47
S11324E0E55AFE4F40815181628173810091570109
S11324F0109158012091590130915A01401B510B00
S1132500620B730B4D8F5E8F6F8F78A34D8D5E8D35
S11325106F8D78A1498B5A8B6B8B7C8B51C94FE99A
S113252056E861E070E0498B5A8B6B8B7C8B48C911
S11325308B2DE6960FB6F894DEBF0FBECDBFDF91AC
S1132540CF911F910F91FF90EF90DF90CF90BF90AC
S1132550AF909F908F907F906F905F904F903F903F
S11325602F900895CF93DF9300D01F92CDB7DEB79D
S11325700E94A3230E94BE2178940E94632660E0F7
S113258080E00E948F2761E371E00E94572882EE69
S113259090E00E94DD2B2FEF43ED80E3215040407B
S11325A08040E1F700C0000085D40E949B2C11E01C
S11325B00F2EF6EC8F2EF1E09F2EF02D0F2EFAE069
S11325C0BF2EF02D0E94A42CBE016D5F7F4FCE0163
S11325D001960E94F6088823A1F189819A819C01C1
S11325E020543F412938334128F0B092FB01109325
S11325F0FC0127C09093300180932F011093FC01BC
S113260080913F0190914001019690930002809344
S1132610FF018B818093FA017FB6F894C980DA8038
S1132620E0903F01F0904001FFEFEF1AFF0AAB800A
S1132630F401018122814481658186810E94AB027B
S11326407FBE0E94C50339D4BDCF08950F931F9355
S1132650CF93DF931F92CDB7DEB78530B1F561E03C
S113266087E00E948F2789832091FA0127FD219515
S1132670022E000C330B440B550B62E0CE01019685
S11326800E94A6286AEF71E0CE0101960E94642898
S11326900091FD011091FE0111234CF46DE2CE0175
S11326A001960E94F62711950195110905C06BE268
S11326B0CE0101960E94F6279801110F440B550B89
S11326C064E0CE0101960E94A6280F90DF91CF917D
S11326D01F910F910895EF92FF921F93CF93DF9371
S11326E01F92CDB7DEB761E085E00E948F27898312
S11326F00F2EF0EBEF2EF1E0FF2EF02D10E0809185
S1132700B501181740F41092DC016AE2CE0101967B
S11327100E94F62713C018130AC0F7016081605D98
S1132720CE0101960E94F6271092DC0107C0109298
S1132730DC016DE2CE0101960E94F6271F5FFFEFD8
S1132740EF1AFF0A1530D9F60F90DF91CF911F9140
S1132750FF90EF900895E091D601F091D70191E0B8
S113276090832091B50130E0F901E055FE4F90814E
S1132770992329F0F901E055FE4F91509083ABDF86
S11327808FB7F89440E95FE561E070E04093B701EA
S11327905093B8016093B9017093BA018FBF089543
S11327A0E091D601F091D70191E090832091B50199
S11327B030E0F901E055FE4F9081993028F4F90199
S11327C0E055FE4F9F5F908386DF8FB7F89440E912
S11327D05FE561E070E04093B7015093B801609306
S11327E0B9017093BA018FBF08958FB7F89410920E
S11327F0B7011092B8011092B9011092BA018FBFBB
S1132800E091D601F091D70110820E94632660E026
S113281080E00E948F2761EE71E00E949928109257
S1132820B501E0EBF1E0108211821282138214826E
S11328308FB7F89440E95FE561E070E04093B70139
S11328405093B8016093B9017093BA018FBF089592
S1132850E091D601F091D70110820E94632660E0D6
S113286080E00E948F2760E471E00E94992861E073
S113287080E00E948F2764E371E00E9499288FB75B
S1132880F89440E95FE561E070E04093B70150934C
S1132890B8016093B9017093BA018FBF0895809312
S11328A0BB0190E1899FF0011124E352FD4F259172
S11328B0349180E0F9010995089581E0F0CF0895FD
S11328C09091B501992399F091509093B50103DF4C
S11328D08FB7F89440E95FE561E070E04093B70199
S11328E05093B8016093B9017093BA018FBF8FB749
S11328F0F8941092B7011092B8011092B901109295
S1132900BA018FBF80E0CBCF0895CF92DF92EF92D0
S1132910FF920F931F93CF93DF939FB7F89440E9EF
S11329205FE561E070E04093B7015093B8016093B4
S1132930B9017093BA019FBFE091D601F091D7011C
S11329401082E091B501E43048F4EF5FE093B50103
S1132950F0E0E055FE4F1082BEDE4BC00F2EF0EBD0
S1132960EF2EF1E0FF2EF02DC0E0D0E0CC24C39494
S1132970DD24D39400E0F70111917F01CE01885149
S1132980934F0E948D2F1813D02EFE01E453FD4F58
S1132990E4911E13C02E2196C530D10561F7D110E4
S11329A002C0CC2019F082E07ADF23C00E946326A3
S11329B060E080E00E948F2760ED71E00E9499281A
S11329C061E080E00E948F276FEB71E00E949928FC
S11329D08FB7F89448E853E160E070E04093B701A2
S11329E05093B8016093B9017093BA018FBF84E02A
S11329F056DFDF91CF911F910F91FF90EF90DF9001
S1132A00CF9008958FB7F8941092B7011092B8013F
S1132A101092B9011092BA018FBF80E040CF08959F
S1132A208FB7F8941092B7011092B8011092B901BF
S1132A301092BA018FBF80E032CF08958FB7F89417
S1132A401092B7011092B8011092B9011092BA0114
S1132A508FBFE091D601F091D70110828091B5012A
S1132A60811103C088E01BCF0895813019F489E0F7
S1132A7016CF0895823019F48DE011CF0895833074
S1132A8019F48AE00CCF0895843049F481E08093EE
S1132A90AE0182E08093AF0183E001CF08958530D9
S1132AA041F482E08093AE0183E08093AF01F7CEDE
S1132AB00895863049F483E08093AE0184E08093E6
S1132AC0AF0183E0ECCE0895873049F484E080932D
S1132AD0AE0185E08093AF0183E0E1CE08958830B4
S1132AE019F48BE0DCCE0895893019F48CE0D7CE4C
S1132AF008958A3019F487E0D2CE08958B3011F40A
S1132B0085E0CDCE08958FB7F8941092B701109256
S1132B10B8011092B9011092BA018FBF80E0BFCE04
S1132B2008958FB7F8941092B7011092B8011092DB
S1132B30B9011092BA018FBFE091D601F091D7018B
S1132B40108282E0ACCE08958FB7F8941092B7014A
S1132B501092B8011092B9011092BA018FBFE0919E
S1132B60D601F091D70110826091AC017091AD0152
S1132B708091AE0190E0880F991F8E50934F0E9470
S1132B80C52F61E080E00E948F2769E971E00E940F
S1132B9099288FB7F89448E853E160E070E04093D7
S1132BA0B7015093B8016093B9017093BA018FBF14
S1132BB086E075CE08958FB7F8941092B7011092FD
S1132BC0B8011092B9011092BA018FBF82E067CEAA
S1132BD0089580E064CE08958FB7F8941092B701F9
S1132BE01092B8011092B9011092BA018FBFE0910E
S1132BF0D601F091D70110821092B7011092B8015A
S1132C001092B9011092BA0182E049CE08958FB7AB
S1132C10F8941092B7011092B8011092B901109271
S1132C20BA018FBF82E03BCE08958FB7F89410921B
S1132C30B7011092B8011092B9011092BA018FBF76
S1132C4082E02DCE08958FB7F8941092B7011092B8
S1132C50B8011092B9011092BA018FBF80E01FCE63
S1132C600895E091D601F091D701108280E017CE4B
S1132C7008958FB7F8941092B7011092B80110928A
S1132C80B9011092BA018FBFE091D601F091D7013A
S1132C90108280E004CE08958FB7F8941092B701A3
S1132CA01092B8011092B9011092BA018FBFE0914D
S1132CB0D601F091D701108260918E0170918F013D
S1132CC08091920190E0880F991F8E50934F0E943B
S1132CD0AB2F80E0E4CD08958FB7F8941092B7013C
S1132CE01092B8011092B9011092BA018FBF0E94DC
S1132CF08A0380E0D4CD08958FB7F8941092B70179
S1132D001092B8011092B9011092BA018FBF82E0FB
S1132D10C6CD08958FB7F8941092B7011092B801F8
S1132D201092B9011092BA018FBF80E0B8CD089516
S1132D308FB7F8941092B7011092B8011092B901AC
S1132D401092BA018FBF82E0AACD08958FB7F8948C
S1132D501092B7011092B8011092B9011092BA0101
S1132D608FBFE091D601F091D701108220918C01A0
S1132D7030918D01A0EDB7E00E94F02C28EE33E0F5
S1132D8040E050E00E94B22CB90180EF9CE00E9428
S1132D90AB2F82E084CD08958FB7F8941092B701D9
S1132DA01092B8011092B9011092BA018FBFE0914C
S1132DB0D601F091D701108282E071CD0895CF92AF
S1132DC0DF92EF92FF928FB7F8941092B7011092AE
S1132DD0B8011092B9011092BA018FBFE091D601E7
S1132DE0F091D701108220918A0130918B01A0EDDE
S1132DF0B7E00E94F02C28EE33E040E050E00E945F
S1132E00B22C69017A01B9018EEE9CE00E94AB2FCD
S1132E10EFE7F1E0A081B1811296DC92CE92119796
S1132E20A281B3811296DC92CE921197A481B581CE
S1132E301296DC92CE921197A681B7811296DC92FB
S1132E40CE9211970084F185E02DD282C18282E076
S1132E5026DDFF90EF90DF90CF9008958FB7F89420
S1132E601092B7011092B8011092B9011092BA01F0
S1132E708FBFE091D601F091D70110826091890152
S1132E808DEE9CE00E949A2F82E009CD08958FB7C1
S1132E90F8941092B7011092B8011092B9011092EF
S1132EA0BA018FBFE091D601F091D701108282E080
S1132EB0F6CC089580E0F3CC0895CF93DF931F926E
S1132EC0CDB7DEB7BE016F5F7F4F8091D601909181
S1132ED0D7010E94F7259FB7F8944091B70150910C
S1132EE0B8016091B9017091BA019FBF4130510599
S1132EF061057105D1F48FB7F8941092B70110925F
S1132F00B8011092B9011092BA018FBF8091BB0130
S1132F1020E1829FC001112481529D4FFC01259123
S1132F2034918981F901099512C09091BB01E82F70
S1132F30F0E028E0929FE00DF11D1124EE0FFF1F39
S1132F40EF52FD4F259134918981F90109950F9034
S1132F50DF91CF9108952FB7F8948091B7019091A4
S1132F60B801A091B901B091BA0182309105A105CF
S1132F70B10558F00197A109B1098093B701909365
S1132F80B801A093B901B093BA012FBF0895CF93AC
S1132F90DF9300D000D01F92CDB7DEB7CE010196EB
S1132FA00E941C0361E087E00E948F278D836DEFF0
S1132FB071E0CE0105960E94642829813A814B81F3
S1132FC05C8167E0CE0105960E94A6280F900F90C1
S1132FD00F900F900F90DF91CF9108950F931F934F
S1132FE0CF93DF931F92CDB7DEB78FB7F8941092CB
S1132FF0B7011092B8011092B9011092BA018FBFB3
S1133000E091D601F091D70110820E946326BFDFC0
S113301080913D0190913E01892B39F480E090E04C
S11330200E94952F892B09F444C080913F0190910F
S11330304001009739F48BE291E0909398018093DA
S1133040970105C00197909398018093970180910F
S11330509701909198012BE0289FB001299F700D52
S113306011246C5F7F4F4BE050E089E991E00E94AE
S11330707D2F60E080E00E948F27898309E911E0B9
S1133080F8012581368140E050E063E0CE010196ED
S11330900E94A6286AE3CE0101960E94F627F80151
S11330A02781308540E050E065E0CE0101960E9422
S11330B01E290F90DF91CF911F910F910895EF92E8
S11330C0FF920F931F93CF93DF931F92CDB7DEB779
S11330D08091FC01882399F11092FC010E946326DF
S11330E060E080E00E948F2789838091FB018A3011
S11330F031F461EF71E0CE0101960E946428809161
S1133100FB018130D9F42091FF013091000240E0AD
S113311050E063E0CE0101960E94A6286AE3CE0146
S113312001960E94F62720912F013091300140E052
S113313050E065E0CE0101960E941E2928DF61E07F
S113314080E00E948F2789830FE711E00F2EF9E8B2
S1133150EF2EF1E0FF2EF02DD801ED91FD918D01C0
S11331608585882331F060E0CE0101960E94F62720
S113317005C061E0CE0101960E94F6270E151F05D9
S113318059F760E08BE00E948F2789838091BC010E
S1133190882319F12091C80130E040E050E062E05A
S11331A0CE0101960E941E298091BD01811106C0A5
S11331B06AE3CE0101960E94F62705C060E2CE01C3
S11331C001960E94F6272091C70130E040E050E0CC
S11331D062E0CE0101960E94A6280F90DF91CF9164
S11331E01F910F91FF90EF9008950E946326E09144
S11331F0B501F0E0EE0FFF1FED5EFE4F60817181BF
S113320080E00C9499280895CF93C82F8FB7F89431
S11332101092B7011092B8011092B9011092BA013C
S11332208FBFE091D601F091D70110820E946326EE
S113323060E080E00E948F278093E0011092B50146
S11332408C2FD3DF8FB7F89440E95FE561E070E03D
S11332504093B7015093B8016093B9017093BA01D8
S11332608FBFCF910895E091D601F091D7011082DC
S11332709091B501992321F091509093B501B5DF58
S11332808FB7F89440E95FE561E070E04093B701DF
S11332905093B8016093B9017093BA018FBF089538
S11332A0E091D601F091D70110829091B5019B3045
S11332B020F49F5F9093B50198DF8FB7F89440E9AD
S11332C05FE561E070E04093B7015093B80160930B
S11332D0B9017093BA018FBF08952091AC01309168
S11332E0AD0140E050E065E08091B6010C941129F5
S11332F008951F93CF93DF931F92CDB7DEB7182F96
S11333008FB7F8941092B7011092B8011092B901D6
S11333101092BA018FBFE091D601F091D7011082CB
S11333202091AE0130E0C901880F991F8E50934F50
S11333300E94952F9093AD018093AC010E94632667
S113334060E082E00E948F2760EB71E00E94992880
S113335061E081E00E948F27898367EA71E0CE01F2
S113336001960E9464282091AF0130E040E050E0D3
S113337061E0CE0101960E94A6286DE3CE0101967C
S11333800E94F62789818093B601812FA6DF8FB72B
S1133390F89440E95FE561E070E04093B701509331
S11333A0B8016093B9017093BA018FBF0F90DF9198
S11333B0CF911F910895E091D601F091D70191E04A
S11333C090832091AC013091AD012115310539F084
S11333D0215031093093AD012093AC017EDF8FB7CA
S11333E0F89440E95FE561E070E04093B7015093E1
S11333F0B8016093B9017093BA018FBF0895E09149
S1133400D601F091D70191E090832091AC013091E5
S1133410AD0128399AE3390738F42F5F3F4F3093D1
S1133420AD012093AC0159DF8FB7F89440E95FE513
S113343061E070E04093B7015093B8016093B90123
S11334407093BA018FBF0895EF92FF921F93CF93A9
S1133450DF931F92CDB7DEB70F2EF0EBEF2EF1E026
S1133460FF2EF02D10E061E0812F0E948F278983C9
S11334708091B501181740F41092DC016AE2CE0184
S113348001960E94F62713C018130AC0F701608141
S1133490605DCE0101960E94F6271092DC0107C000
S11334A01092DC016DE2CE0101960E94F6271F5FA7
S11334B0FFEFEF1AFF0A1530B1F60F90DF91CF91AD
S11334C01F91FF90EF900895CF93C82F8FB7F89472
S11334D01092B7011092B8011092B9011092BA017A
S11334E08FBF0E94632660E080E00E948F276AE815
S11334F071E00E949928E0EBF1E0108211821282BF
S1133500138214821092B5018C2F9EDFE091D601B4
S1133510F091D70110828FB7F89440E95FE561E03C
S113352070E04093B7015093B8016093B901709370
S1133530BA018FBFCF910895E091D601F091D701E0
S113354091E090832091B50130E0F901E055FE4F00
S11335509081992331F0F901E055FE4F9150908309
S113356073DF8FB7F89440E95FE561E070E0409362
S1133570B7015093B8016093B9017093BA018FBF3A
S11335800895E091D601F091D70191E090832091C4
S1133590B50130E0F901E055FE4F9081993030F4E7
S11335A0F901E055FE4F9F5F90834EDF8FB7F8948B
S11335B040E95FE561E070E04093B7015093B801E2
S11335C06093B9017093BA018FBF0895EF92FF928F
S11335D00F931F93CF93DF93E091D601F091D7011E
S11335E01082E091B501E430C0F4EF5FE093B501DF
S11335F0F0E0E055FE4F108227DF8FB7F89440E9E2
S11336005FE561E070E04093B7015093B8016093C7
S1133610B9017093BA018FBF35C000EB11E0C8EE59
S1133620DCE00F2EF5EBEF2EF1E0FF2EF02DF8018C
S113363061918F01CE010E94B82F21960E151F05AE
S1133640B1F70E94632661E080E00E948F27809397
S1133650E00161E080E00E948F276FE771E00E9443
S113366099288FB7F89448E853E160E070E04093FC
S1133670B7015093B8016093B9017093BA018FBF39
S113368084E00DD9DF91CF911F910F91FF90EF90BE
S11336900895CF92DF92EF92FF928091A40182303D
S11336A019F481E08093DC01C090A701D12CE12CB6
S11336B0F12C61E08BE00E948F27A701960162E064
S11336C00E9411291092DC018091A401813011F42F
S11336D08093DC01C090A601D12CE12CF12C61E097
S11336E08EE00E948F27A701960162E00E941129B3
S11336F01092DC018091A401843019F481E080935C
S1133700DC01A5EAB1E016968C91169783701596A4
S1133710EC911597F0E09DE0899FE00DF11D1124D7
S1133720EF52FC4FE49114968C91811103C081E017
S11337308093A9018091A901E81710F4E093A901ED
S1133740C090A901D12CE12CF12C61E080E00E9411
S11337508F27A701960162E00E9411291092DC01D3
S11337608091A401853019F481E08093DC01C0903C
S1133770AA01D12CE12CF12C61E083E00E948F2777
S1133780A701960162E00E9411291092DC01809148
S1133790A401863019F481E08093DC0161E086E0C5
S11337A00E948F276CE771E00E949928C090AB01BA
S11337B0D12CE12CF12C61E088E00E948F27A70135
S11337C0960162E00E9411291092DC0161E082E01E
S11337D00E948F276DE20E94162861E085E00E9416
S11337E08F276DE20E9416288091A401811103C0E5
S11337F081E08093DC0161E08DE00E948F276AE321
S11338000E9416281092DC01FF90EF90DF90CF9079
S113381008958FB7F8941092B7011092B8011092DE
S1133820B9011092BA018FBFE091D601F091D7018E
S113383010820E94632660E080E00E948F2761E787
S113384071E00E9499281092B5014FB7F894E6EC04
S1133850F1E0A5EAB1E02DEC31E081918D93E2171E
S1133860F307D9F786E08093A40180E99FE5A1E0FE
S1133870B0E08093B7019093B801A093B901B093DD
S1133880BA014FBF06CF0895E091D601F091D70158
S113389081E080838091A401863039F0823039F050
S11338A031E0813029F430E003C031E101C030E07F
S11338B090E0FC01EB55FE4F2081321728F4FC0107
S11338C0EB55FE4F21502083E4DE8FB7F89440E996
S11338D05FE561E070E04093B7015093B8016093F5
S11338E0B9017093BA018FBF0895E091D601F091A8
S11338F0D70181E080838091A4018530A9F08430D0
S113390079F4E5EAF1E096819370E581F0E02DE049
S1133910929FE00DF11D1124EF52FC4FE4910AC077
S1133920823039F0E9E101C0ECE0813019F4EBE3D5
S113393001C0E7E190E0DC01AB55BE4F2C912E179E
S113394018F4FD012F5F2083A4DE8FB7F89440E9BB
S11339505FE561E070E04093B7015093B801609374
S1133960B9017093BA018FBF08951F93CF93DF936A
S11339708091A4018823D9F09FEF980F933019F018
S11339809093A40103C082508093A40182DE8FB778
S1133990F89440E95FE561E070E04093B70150932B
S11339A0B8016093B9017093BA018FBF14C01FB7F7
S11339B0F894C5EAD1E08E8113D68D8126D68C8108
S11339C039D68A814CD689815FD673D675D61FBF06
S11339D080E00E944F14DF91CF911F910895809150
S11339E0A4018630D8F491E0980F933019F09093A5
S11339F0A40103C08E5F8093A4014BDE8FB7F894BB
S1133A0040E95FE561E070E04093B7015093B8018D
S1133A106093B9017093BA018FBF08958FB7F8947A
S1133A201092B7011092B8011092B9011092BA0124
S1133A308FBF80E00C944F140895CF93DF93CDB7DC
S1133A40DEB72C970FB6F894DEBF0FBECDBF209122
S1133A509301309194018091950190919601820F88
S1133A60931F8C3221E0920730F08C5291408C32BB
S1133A7021E09207D0F72BE0289FB001299F700D19
S1133A8011246C5F7F4F4BE050E0CE0101960E9401
S1133A907D2F61E080E00E948F278C872C8130E0AD
S1133AA040E050E062E0CE010C960E94A6286AE352
S1133AB0CE010C960E94F6272D8130E040E050E0C4
S1133AC062E0CE010C960E94A6288C858F5F8C87BD
S1133AD02E813F8140E050E063E0CE010C960E94CD
S1133AE0A6288C858F5F8C872885398540E050E037
S1133AF065E0CE010C960E94A6288A85811106C035
S1133B0064E4CE010C960E94F62705C060E2CE0163
S1133B100C960E94F62760E086E00E948F278C872F
S1133B202B8130E040E050E062E0CE010C960E9430
S1133B30A6286DE2CE010C960E94F6272A8130E079
S1133B4040E050E062E0CE010C960E94A6286DE6AB
S1133B5071E0CE010C960E946428298130E040E097
S1133B6050E062E0CE010C960E94A6282C960FB677
S1133B70F894DEBF0FBECDBFDF91CF9108951092B0
S1133B80B7011092B8011092B9011092BA01E091F4
S1133B90D601F091D70110820E94632660E080E094
S1133BA00E948F2768E671E00E9499284FB7F89425
S1133BB020913D0130913E012C3281E0380718F00C
S1133BC060E070E001C0B90180913F019091400133
S1133BD08217930748F4845D9E4F861B970B90933E
S1133BE096018093950127C0861B970B90939601AD
S1133BF08093950120C080913D0190913E01892BD5
S1133C00C1F461E080E00E948F276DE571E00E94BD
S1133C10992880E197E2A0E0B0E08093B701909307
S1133C20B801A093B901B093BA0184E00C944F1485
S1133C30089503CF08954FBF1092940110929301F9
S1133C4080E090E00E94952F892BA9F2F2CFCF93C8
S1133C50DF93E091D601F091D70110822091930176
S1133C60309194018091950190919601280F391F0C
S1133C702C3281E0380730F02C5231402C3281E074
S1133C803807D0F78BE0829FE001839FD00D112489
S1133C90C35FDF4FCE010E948D2F882329F060E09F
S1133CA0CE010E949A2F04C061E0CE010E949A2F97
S1133CB0C4DEDF91CF910895E091D601F091D70150
S1133CC081E080838091930190919401009729F081
S1133CD001979093940180939301AFCE0895E0915E
S1133CE0D601F091D70181E0808380E090E00E94CA
S1133CF0952F40913D0150913E01209193013091C7
S1133D0094018417950708F4CA0101972817390705
S1133D1030F42F5F3F4F30939401209393018DCE65
S1133D200895CF92DF92EF92FF92C0908E01D090CF
S1133D308F01E12CF12C61E084E00E948F27A70120
S1133D40960165E00E941129C0909001D0909101E4
S1133D50E12CF12C61E08AE00E948F27A7019601F3
S1133D6065E00E941129FF90EF90DF90CF900895B5
S1133D70CF92DF92EF92FF928FB7F8941092B7012F
S1133D801092B8011092B9011092BA018FBFE0915C
S1133D90D601F091D70110821092B7011092B801A8
S1133DA01092B9011092BA018ED760E080E00E94AF
S1133DB08F2764E571E00E94992880913D019091DC
S1133DC03E01892B49F480E090E00E94952F892BD5
S1133DD019F480E00E944F1480913F0190914001BA
S1133DE0009739F48BE291E09093980180939701C6
S1133DF005C0019790939801809397018091970152
S1133E00909198012BE0289FB001299F700D1124F7
S1133E106C5F7F4F4BE050E089E991E00E947D2F79
S1133E209091A30197FD91958DEC989F812D11247C
S1133E30869586958695880F282F220F220F820F4C
S1133E40981B90939201E090A001F090A101F09250
S1133E509101E092900160E08AE00E948F2797012F
S1133E6040E050E065E00E9411298091920190E0C9
S1133E70880F991F8E50934F0E94952F7C0182EFDB
S1133E809CE00E94952FE81AF90AF0928F01E092C3
S1133E908E0161E080E00E948F2761E571E00E945D
S1133EA09928C0909201D12C8FEFC81AD80A0D2CF2
S1133EB0000CEE08FF0861E082E00E948F27A70152
S1133EC0960161E00E94112961E083E00E948F273E
S1133ED06FE471E00E94992861E089E00E948F27D5
S1133EE06DE471E00E9499281CDF8FB7F89440E9D3
S1133EF05FE561E070E04093B7015093B8016093CF
S1133F00B9017093BA018FBFFF90EF90DF90CF900B
S1133F100895E091D601F091D70181E080838091EA
S1133F208E0190918F01019790938F0180938E0160
S1133F3080919001909191010197909391018093C8
S1133F409001EFDE8FB7F89440E95FE561E070E03F
S1133F504093B7015093B8016093B9017093BA01CB
S1133F608FBF0895E091D601F091D70181E080835D
S1133F7080918E0190918F01019690938F0180938F
S1133F808E018091900190919101019690939101FD
S1133F9080939001C6DE8FB7F89440E95FE561E055
S1133FA070E04093B7015093B8016093B9017093E6
S1133FB0BA018FBF0895CF92DF92EF92FF92809162
S1133FC08C0190918D018131974230F080E197E22C
S1133FD090938D0180938C01C0908C01D0908D01C1
S1133FE0E12CF12C61E089E09AD7A701960165E004
S1133FF00E941129FF90EF90DF90CF9008958FB722
S1134000F8941092B7011092B8011092B90110926D
S1134010BA018FBFE091D601F091D701108280EFF1
S11340209CE00E94952F9C01A8EEB3E00E94F02C26
S113403020ED37E040E050E00E94B22C30938D0137
S113404020938C0140D660E080E069D76BE271E098
S11340500E94992861E080E062D761E271E00E94E9
S11340609928A9DF8FB7F89440E95FE561E070E033
S11340704093B7015093B8016093B9017093BA01AA
S11340808FBF0895E091D601F091D70181E080833C
S113409080918C0190918D01803127E2920728F460
S11340A0019690938D0180938C0185DF8FB7F894EE
S11340B040E95FE561E070E04093B7015093B801D7
S11340C06093B9017093BA018FBF0895E091D6014E
S11340D0F091D70181E0808380918C0190918D01D2
S11340E08B30910528F0019790938D0180938C017A
S11340F062DF8FB7F89440E95FE561E070E04093D8
S1134100B7015093B8016093B9017093BA018FBF9E
S11341100895CF92DF92EF92FF9280918C0190915B
S11341208D01813A9F4030F080EA9FE090938B01AB
S113413080938A01C0908A01D0908B01E12CF12CEC
S113414061E08AE0ECD6A701960164E00E9411299F
S1134150FF90EF90DF90CF9008958FB7F89410926E
S1134160B7011092B8011092B9011092BA018FBF31
S1134170E091D601F091D70110828EEE9CE00E946E
S1134180952F9C01A8EEB3E00E94F02C20ED37E0BF
S113419040E050E00E94B22C30938B0120938A01BE
S11341A092D560E080E0BBD664E171E0C2D761E003
S11341B080E0B5D669E071E0BCD7ABDF8FB7F89487
S11341C040E95FE561E070E04093B7015093B801C6
S11341D06093B9017093BA018FBF0895E091D6013D
S11341E0F091D70181E0808380918A0190918B01C5
S11341F08230910528F0019790938B0180938A0176
S113420088DF8FB7F89440E95FE561E070E04093A0
S1134210B7015093B8016093B9017093BA018FBF8D
S11342200895E091D601F091D70181E080838091D7
S11342308A0190918B01803A2FE0920728F401962D
S113424090938B0180938A0164DF8FB7F89440E9DF
S11342505FE561E070E04093B7015093B80160936B
S1134260B9017093BA018FBF0895CF92DF92EF9294
S1134270FF9280918901883824F488E88093890129
S113428005C089371CF088E780938901C0908901B3
S11342900C2C000CDD08EE08FF0861E089E03FD635
S11342A0A701960164E0BDD7FF90EF90DF90CF9017
S11342B008958FB7F89440E95FE561E070E04093BA
S11342C0B7015093B8016093B9017093BA018FBFDD
S11342D0E091D601F091D70110828DEE9CE00E940E
S11342E08D2F80938901EFD460E080E018D66FEFC2
S11342F070E01FD761E080E012D665EF70E019D757
S1134300B4CF08958FB7F89440E95FE561E070E0B9
S11343104093B7015093B8016093B9017093BA0107
S11343208FBFE091D601F091D70181E08083809125
S1134330890189381CF081508093890196CF0895B2
S11343408FB7F89440E95FE561E070E04093B7010E
S11343505093B8016093B9017093BA018FBFE09193
S1134360D601F091D70181E080838091890188375B
S11343701CF48F5F8093890178CF08950E9477029F
S11343800E945A170C94F00308950E94AB170C94E2
S1134390A10308950C949A050895DF9ADE9A85E1A5
S11343A08A95F1F70000DE9885E18A95F1F700001F
S11343B0DF980895DE9885E18A95F1F70000DF9A89
S11343C085E18A95F1F70000DE9A0895DF9A81E08D
S11343D08093D50185E18A95F1F70000CE9B109278
S11343E0D501DF9885E18A95F1F700000895DE98FC
S11343F0EDDFDE9A0895DE9AE9CF0895D698E6DFD8
S1134400D69A0895D69898E080E0DF9A25E12A9517
S1134410F1F70000880FCE998F5FDF9825E12A9588
S1134420F1F70000915089F7D69A0895CF93DF935E
S1134430D82FC8E0DD2314F4DE9A01C0DE98C6DF6D
S1134440DD0FC150B9F7DF91CF910895A6DF80ED5C
S1134450EDDFD4CF0895FF920F931F93CF93DF9393
S1134460FFB6F894F3DF80E0E1DFC8DFCEEBD1E004
S113447006EC11E08991DADFC1DFC017D107D1F76B
S113448099DFFFBEDF91CF911F910F91FF900895A7
S1134490FF920F931F93CF93DF93FFB6F894D6DF69
S11344A080E0C4DFABDF79DF81EDC0DFA7DFAADF07
S11344B08093CD01CEECD1E005ED11E098DFA2DFD1
S11344C08993C017D107D1F796DF74DFFFBEDF9160
S11344D0CF911F910F91FF900895CF93CFB7F89488
S11344E0D7DFADECB1E08C91E6ECF1E0982F969536
S11344F0969596959E71292F220F220F920F8F70F9
S1134500890F808311968C911197982F9695969583
S113451096959E71292F220F220F920F8F70890F6B
S1134520818312962C911297822F90E0959587950E
S11345309595879595958795959587958370880F1B
S1134540982F990F990F890F2F70820F82831396DA
S11345508C9113978770838314962C911497822FD0
S113456090E09595879595958795959587959595DB
S113457087958370880F982F990F990F890F2F7043
S1134580820F848315968C91159784FB992790F953
S1134590990F292F220F220F920F8F70890F858375
S11345A016968C91982F9695969596959E71292F8F
S11345B0220F220F920F8F70890F8683CFBFCF9166
S11345C008959FB7F894EDECF1E0AEEBB1E025ED82
S11345D031E081918D93E217F307D9F79FBF0895D6
S11345E09DEC899F912D1124969596959695392F3A
S11345F0330F232F220F220F230F821B20E1929FC0
S1134600800D11248093C40108959DEC899F912D00
S11346101124969596959695392F330F232F220FB3
S1134620220F230F821B20E1929F800D112480937F
S1134630C30108959DEC899F912D1124969596951B
S11346409695392F330F232F220F220F230F821B0E
S113465020E1929F800D11248093C20108959DEC66
S1134660899F912D1124969596959695392F330F00
S1134670232F220F220F230F821B20E1929F800DF4
S113468011248093C00108959DEC899F912D1124DC
S1134690969596959695392F330F232F220F220F37
S11346A0230F821B20E1929F800D11248093BF0170
S11346B008951092BE010895CECE0895D79AD69A41
S11346C0DF9ADE9A0ADF7DDF8091C801883110F01D
S11346D01092C0018091C7018C3310F01092BF0179
S11346E08091C6018C3310F01092BE0183E1809357
S11346F0C501B1CE089580912C0190912D010197AF
S113470029F090932D0180932C01089588EE93E075
S113471090932D0180932C01E0DE8091BD018F5F89
S1134720823018F48093BD0102C01092BD018091C3
S1134730C60190912B01891729F080932B0181E008
S11347408093BC010895EF92FF920F931F93CF9330
S1134750DF9329D680E1D6D29093DB018093DA01EE
S113476087E190E008D7EC011ED0D093D701C09325
S1134770D6010E944D2CE12CFF24F39400E110E0BB
S113478023E040E060E875E280E090E0F8D69093A2
S1134790D9018093D80192DFDF91CF911F910F91BE
S11347A0FF90EF9008951F93CF93DF93EC01E4E61D
S11347B0F0E080818081807F8083E5E6F0E0808185
S11347C08F6080838FEF898B188A1F861E861D86D3
S11347D01A8619868B871C861D8A1C8A81E0888329
S11347E080E190E0CAD69B8B8A8B84E090E0C3D6AC
S11347F0FC01118214E11283138210829A8389834B
S113480084E090E0B8D6FC011182128313821082F6
S11348109C838B8384E090E0AED6FC0111821283EA
S1134820138210829E838D8384E090E0A4D6FC01E1
S1134830118212831382108298878F83DF91CF9124
S11348401F91089520E030E080E070E0AB01022E7B
S113485002C0559547950A94E2F740FD8F5F2F5F9C
S11348603F4F2430310591F70895DC013FB7F894A8
S113487054968C91549791E0980F903130F0905168
S11348809031E8F791EF980F9F7055962C915597BA
S1134890291759F05296ED91FC915397E80FF11DA9
S11348A0608354969C933FBF08953FBF0895FF9241
S11348B00F931F93CF93DF93EC011B85111116C047
S11348C06C85662369F08D859E858135910518F484
S11348D08881882319F08881882311F0CE01C5DFEF
S11348E01C861E861D86188A1F8640C0612FAADF7B
S11348F0F82E0C85602FCE01A5DF8F1510F41C87D0
S113490002C010132FC08D859E85813D27E092073C
S113491018F401969E878D8788818823D1F08D8530
S11349209E85803D974010F1612FCE019EDF8F85DB
S113493098898436910540F40196988B8F8788E096
S113494097E09E878D8712C08EEC97E09E878D87B7
S11349500DC08D859E858035910541F4612FCE0172
S113496084DF04C01E861D86188A1F86DF91CF91BE
S11349701F910F91FF900895CF93DF931F92CDB7AE
S1134980DEB7FC01809163008F708983168A898168
S113499083FB882780F9A181B2819FB7F89488238B
S11349A0A9F011968C911197882331F081501196BA
S11349B08C931197811125C013968C91139788239A
S11349C001F113961C9213971C921BC011968C91A3
S11349D0119712962C911297821730F48F5F1196CB
S11349E08C931197821768F013968C911397811109
S11349F008C081E013968C9313978C9311962C9393
S1134A00119713968C919FBF9689892B868B8981E8
S1134A1082FB882780F9A381B4819FB7F894882307
S1134A20A9F011968C911197882331F08150119639
S1134A308C931197811125C013968C911397882319
S1134A4001F113961C9213971C921BC011968C9122
S1134A50119712962C911297821730F48F5F11964A
S1134A608C931197821768F013968C911397811188
S1134A7008C081E013968C9313978C9311962C9312
S1134A80119713968C919FBF90E0880F991F2689E8
S1134A90822B868B898186958170A581B6819FB78B
S1134AA0F8948823A9F011968C911197882331F0FA
S1134AB0815011968C931197811125C013968C9176
S1134AC01397882301F113961C9213971C921BC011
S1134AD011968C91119712962C911297821730F49B
S1134AE08F5F11968C931197821768F013968C91AF
S1134AF01397811108C081E013968C9313978C93BC
S1134B0011962C93119713968C919FBF90E0880F68
S1134B10991F880F991F2689822B868B8981817022
S1134B20A781B0859FB7F8948823A9F011968C913A
S1134B301197882331F0815011968C93119781112C
S1134B4025C013968C911397882301F113961C9218
S1134B5013971C921BC011968C91119712962C914D
S1134B601297821730F48F5F11968C9311978217E6
S1134B7068F013968C911397811108C081E0139605
S1134B808C9313978C9311962C93119713968C9165
S1134B909FBF90E0880F991F880F991F880F991F56
S1134BA02689822B868B2385281769F021853285F7
S1134BB02115310531F02150310932872187232B0A
S1134BC091F4838710C0818592858832910528F4F9
S1134BD0019692878187889730F0CF0128E230E0F0
S1134BE03287218764DE0F90DF91CF910895FC0115
S1134BF02FB7F89485899489891304C0DB011C922A
S1134C0080E022C0A289B389A80FB11D8C91DB0179
S1134C108C93858991E0980F903130F090519031C8
S1134C20E8F791EF980F9F70958BFB01808181309D
S1134C3059F0823049F0843021F0883021F085E049
S1134C4003C083E001C084E02FBF0895282F22957C
S1134C502F709BB3907F922B9BBBDC9A93E09A9529
S1134C60F1F70000DC9893E09A95F1F700008F705B
S1134C709BB3907F892B8BBBDC9A83E08A95F1F7F9
S1134C800000DC9893E09A95F1F700000895CF9323
S1134C90CFB7F894DD98E7ECF0E03197F1F700C076
S1134CA00000D4DFCFBFCF910895CF93CFB7F8944E
S1134CB0DD9AE7ECF0E03197F1F700C00000C6DFC1
S1134CC0CFBFCF9108958091ED01882371F080E0EA
S1134CD020E2E091EB01F091EC01E80FF11D20835B
S1134CE08F5F9091ED018917A0F3E3EEF1E010825C
S1134CF011821282138214821582168217821092F4
S1134D00E00108950F931F93CF93DF939AB39F60AD
S1134D109ABB9BB39F609BBBD49ADC9AD59ADD9ACD
S1134D202FEF39E698E1215030409040E1F700C080
S1134D30000080932E01982F990F9093ED0190E03D
S1134D40880F991F1AD49093EC018093EB01109271
S1134D50DD01E3EEF1E0F093E201E093E101109272
S1134D60E00110821182128213821482158216824B
S1134D7017821092DF011092DE011092DC0188E2AA
S1134D8086DFEFE3FFE13197F1F700C0000088E22E
S1134D907EDF8FE39FE10197F1F700C000008CE014
S1134DA076DF81E074DFEFE3FFE13197F1F700C0D4
S1134DB0000086E06CDF82E06ADF8FE39FE1019709
S1134DC0F1F700C0000080E862DFEFE3FFE1319714
S1134DD0F1F700C0000080E45ADF8FE99FE00197FB
S1134DE0F1F700C00000C5E0D4E005E114E0FE01E5
S1134DF084915BDFF0E5FA95F1F72196C017D107AE
S1134E00B1F780E844DF8FE99FE00197F1F700C034
S1134E10000059DF60E070E08FE098E20E94122FFA
S1134E20DF91CF911F910F9108958091DE019091B0
S1134E30DF010196811524E0920728F49093DF01A5
S1134E408093DE0104C01092DF011092DE01809194
S1134E50DD018F5F8093DD019091DD018091ED0193
S1134E60981750F01092DD0183EE91E09093E201E7
S1134E708093E10180E80BDF9091DD0180912E01A8
S1134E80981308C087EE91E09093E2018093E101CA
S1134E9080ECFDDE87EC90E00197F1F700C00000A4
S1134EA08091DD01E091EB01F091EC01E80FF11D3F
S1134EB0E081EE2324F4F0E0EB56FC4FE491809182
S1134EC0DD01A091E101B091E20160912E013ED596
S1134ED0292F8D919D910D90BC91A02D04C0B69564
S1134EE0A795979587952A95D2F780FF08C080915A
S1134EF0DE019091DF018115924008F4E0E28E2FEB
S1134F00D4CE0895FC0190812091ED01921730F0E8
S1134F10921B90832091ED019217D0F70895CF93BF
S1134F20DF931F92CDB7DEB790912E01699F800D5C
S1134F3011248983CE010196E5DF89810F90DF91E9
S1134F40CF910895FB012081222331F1FC0180815E
S1134F5060912E01FBD4292FE82FF0E0EE0FFF1F04
S1134F60EE0FFF1FED51FE4F81E090E0A0E0B0E0B6
S1134F7004C0880F991FAA1FBB1F2A95D2F740812E
S1134F80518162817381842B952BA62BB72B80834F
S1134F909183A283B3830895FC01808160912E01E3
S1134FA0D5D4292FE82FF0E0EE0FFF1FEE0FFF1FDF
S1134FB0ED51FE4F81E090E0A0E0B0E004C0880F26
S1134FC0991FAA1FBB1F2A95D2F780959095A0958B
S1134FD0B095408151816281738184239523A623F6
S1134FE0B72380839183A283B38308951F93CF93C0
S1134FF0DF93EC01162F86DF6CED71E0CE01A2DFAA
S11350008881E091EB01F091EC01E80FF11D108330
S113501088818F5F8883DF91CF911F910895682FD6
S113502080EE91E0E3DF81E090E00895CF93DF9399
S11350301F92CDB7DEB78983CE010196D7DF0F90DB
S1135040DF91CF910895EF92FF920F931F93CF9327
S1135050DF93EC018B01E090ED01EA94F12C8FEFEA
S1135060E81AF80AE60EF71E17C0CE014BDF6CED06
S113507071E0CE0167DFF80181918F019881E091A1
S1135080EB01F091EC01E90FF11D808388818F5FC2
S113509088830E151F0521F0F80180818111E5CF69
S11350A0DF91CF911F910F91FF90EF900895CF93CF
S11350B0DF931F92CDB7DEB78983CE010196C3DF9C
S11350C00F90DF91CF910895DF92EF92FF920F93AB
S11350D01F93CF93DF93EC018B01E090ED01EA94F1
S11350E0F12C8FEFE81AF80AE60EF71E16C0CE016F
S11350F009DF6CED71E0CE0125DF8881E091EB01E1
S1135100F091EC01E80FF11DD08288818F5F8883D4
S11351100F5F1F4F0E151F0521F0F801D490D11019
S1135120E6CFDF91CF911F910F91FF90EF90DF9029
S11351300895CF93DF931F92CDB7DEB78983CE0155
S11351400196C2DF0F90DF91CF9108958F929F92C5
S1135150AF92BF92CF92DF92EF92FF920F931F9381
S1135160CF93DF931F92CDB7DEB75C01062F6901A1
S11351707A0155235CF46DE239DF0150F094E09438
S1135180D094C094C11CD11CE11CF11CF501808198
S1135190800F8083C501B6DEF5018081815089834B
S11351A0002389F10F2EFAE08F2E912CA12CB12C23
S11351B0F02DC701B601A5019401F6D3162F8981FC
S11351C088232CF490912E01990F890F89836CED1B
S11351D071E0CE010196B6DEE091EB01F091EC01B5
S11351E089819FEF980F9983E80FF11D87FDFA9548
S11351F0105D1083C701B601A5019401D5D36901DF
S11352007A010150B1F60F90DF91CF911F910F9168
S1135210FF90EF90DF90CF90BF90AF909F908F90D2
S11352200895CF93DF931F92CDB7DEB78983CE0164
S113523001968CDF0F90DF91CF9108956F927F924A
S11352408F929F92AF92BF92CF92DF92EF92FF9292
S11352500F931F93CF93DF931F92CDB7DEB78C01CB
S1135260B62E69017A01552314F470DF86C0FC015F
S11352708081860F8083C80145DEF80110811150BA
S11352801983C701B6012AE030E040E050E08CD336
S1135290062F11232CF480912E01880F180F1983E7
S11352A06CED71E0CE0101964DDEE091EB01F091E1
S11352B0EC0189819FEF980F9983E80FF11D87FD19
S11352C0FA95005D0083C701B6012AE030E040E0B2
S11352D050E06AD369017A010EEF0B0DF1E0BF16BD
S11352E009F44BC00F2EFAE08F2E912CA12CB12C77
S11352F0F02D6894772475F801C0082FC701B60112
S1135300A501940151D3162F662E898188232CF48C
S113531090912E01990F890F89836CED71E0CE0174
S1135320019610DE611010C0C114D104E104F1042F
S113533059F48981E091EB01F091EC01E80FF11D42
S113534087FDFA9570820BC08981E091EB01F091A1
S1135350EC01E80FF11D87FDFA95105D108389813A
S113536081508983C701B601A50194011DD3690148
S11353707A018FEF800F0111C0CF0F90DF91CF9191
S11353801F910F91FF90EF90DF90CF90BF90AF905F
S11353909F908F907F906F90089580912E01880F39
S11353A08093ED010895CF93DF9300D0CDB7DEB79E
S11353B013BE83B7886083BF83B78F7B83BF83B7F4
S11353C08F7D83BF83B78F7E83BF8EE390E09A8304
S11353D0898389819A81029770F481E090E09A83AD
S11353E0898383B78B7F83BF83B78D7F83BF83B765
S11353F0816083BF6AC089819A81099770F488E0CB
S113540090E09A83898383B78B7F83BF83B782605D
S113541083BF83B78E7F83BF58C089819A81819768
S113542070F480E290E09A83898383B78B7F83BF93
S113543083B7826083BF83B7816083BF46C089819D
S11354409A818134910570F480E490E09A83898391
S113545083B7846083BF83B78D7F83BF83B78E7F19
S113546083BF33C089819A818138910570F480E8C3
S113547090E09A83898383B7846083BF83B78D7FE9
S113548083BF83B7816083BF20C089819A818130C3
S1135490914070F480E091E09A83898383B78460BB
S11354A083BF83B7826083BF83B78E7F83BF0DC002
S11354B080E094E09A83898383B7846083BF83B751
S11354C0826083BF83B7816083BF83B7806883BFF3
S11354D012BE29813A81A8EEB3E082D29B01AC01CD
S11354E060E074E284EF90E03DD2215021BF86B7A2
S11354F08D7F86BF86B78E7F86BF87B7826087BF62
S11355000F900F90DF91CF9108951F920F920FB6D5
S11355100F9211240BB60F922F933F934F935F93E7
S11355206F937F938F939F93AF93BF93EF93FF9367
S113553087B78D7F87BF789478DC8091D60190916E
S1135540D7011ADAD8D80E94C52187B7826087BFED
S1135550FF91EF91BF91AF919F918F917F916F9147
S11355605F914F913F912F910F900BBE0F900FBE03
S11355700F901F90189529C3089527C308954F923B
S11355805F926F927F928F929F92AF92BF92CF92CF
S1135590DF92EF92FF920F931F93CF93DF9300D08C
S11355A0CDB7DEB749832A832093EE01DC01CB011A
S11355B0880F991FAA1FBB1F880F991FAA1FBB1F03
S11355C09C01AD01220F331F441F551F220F331FAF
S11355D0441F551F60E074E284EF90E0C3D1215072
S11355E031093093900029B91AB8498139812A8147
S11355F09A818A8140FB662460F8712C31FB8824EF
S113560080F8912C8628972820FBAA24A0F8B12C96
S1135610AA0CBB1C8A289B2891FBCC24C0F8D12C53
S1135620CC0CDD1CCC0CDD1CC828D92882FB4424FE
S113563040F8512C440C551C440C551C4C285D2836
S113564040929500549A539A579A802F912F95DF40
S11356509093F6018093F50101500093F8018E2D8B
S11356609F2D8BDF9093F2018093F101EA94E092F5
S1135670F70160E070E08BEC9BE2D4D30F900F90C5
S1135680DF91CF911F910F91FF90EF90DF90CF901A
S1135690BF90AF909F908F907F906F905F904F904E
S11356A008951F920F920FB60F9211240BB60F920A
S11356B08F939F93EF93FF938091F4018F5F909169
S11356C0F80189239091F301891761F09091F40115
S11356D0E091F501F091F601E90FF11D9CB1908381
S11356E08093F401FF91EF919F918F910F900BBEE6
S11356F00F900FBE0F901F9018951F920F920FB628
S11357000F9211240BB60F928F939F93EF93FF93F5
S11357109091F0018091EF01981302C0559813C045
S1135720509A8091EF01E091F101F091F201E80FBC
S1135730F11D80818CB98091EF018F5F9091F70109
S113574089238093EF01FF91EF919F918F910F90A7
S11357500BBE0F900FBE0F901F9018953FB7F89493
S11357609091F0019F5F2091F70192232091EF0126
S1135770921771F02091F001E091F101F091F201A2
S1135780E20FF11D80839093F001559A81E001C0EE
S113579080E03FBF0895E2DF81E090E00895CF9379
S11357A0DF93EC018881882329F02196D7DF899142
S11357B08111FCCFDF91CF910895CF93DF93EC015A
S11357C0FC018491882331F0C9DF2196FE01849184
S11357D08111FACFDF91CF9108954F925F926F922A
S11357E07F92AF92BF92CF92DF92EF92FF921F937C
S11357F0CF93DF93CDB7DEB760970FB6F894DEBFD3
S11358000FBECDBFB82E6A017B0177235CF48DE215
S1135810A5DFBA94F094E094D094C094C11CD11C38
S1135820E11CF11CFE01EB0DF11D11821FEF1B0D9C
S1135830BB20E1F00F2EFAE04F2E512C612C712C7D
S1135840F02DAA24A394B12CAC0EBD1EA10EB11C44
S1135850C701B601A3019201A7D0605DF501608381
S1135860C22ED32EE42EF52E115058F7CE010196F8
S113587096DF60960FB6F894DEBF0FBECDBFDF9102
S1135880CF911F91FF90EF90DF90CF90BF90AF909A
S11358907F906F905F904F90089515BC85B5886098
S11358A085BD85B58F7B85BD85B58F7D85BD85B56A
S11358B08F7E85BD85B58B7F85BD85B5826085BDB1
S11358C085B5816085BD85B58F7785BD14BC8CE7B2
S11358D083BD86B78F7786BF86B78F7B86BF87B732
S11358E0806887BF08951F920F920FB60F921124FC
S11358F00BB60F922F933F934F935F936F937F93C6
S11359008F939F93AF93BF93EF93FF930E94CA210A
S1135910FF91EF91BF91AF919F918F917F916F9183
S11359205F914F913F912F910F900BBE0F900FBE3F
S11359300F901F9018959EE088E10FB6F894A895F3
S113594081BD0FBE91BD0895A8950895991B79E076
S113595004C0991F961708F0961B881F7A95C9F7FB
S113596080950895A1E21A2EAA1BBB1BFD010DC050
S1135970AA1FBB1FEE1FFF1FA217B307E407F507FB
S113598020F0A21BB30BE40BF50B661F771F881FD7
S1135990991F1A9469F760957095809590959B016D
S11359A0AC01BD01CF010895052E97FB16F40094B8
S11359B00FD057FD05D0D6DF07FC02D046F408C04F
S11359C050954095309521953F4F4F4F5F4F089527
S11359D090958095709561957F4F8F4F9F4F089557
S11359E0A29FB001B39FC001A39F700D811D11241C
S11359F0911DB29F700D811D1124911D0895DF9397
S1135A00CF931F930F939A9DF02D219FF00D8B9DA3
S1135A10F00D8A9DE02DF10D039FF00D029FE00D26
S1135A20F11D4E9DE00DF11D5E9DF00D4F9DF00D9D
S1135A307F936F93BF92AF925F934F93D501D0DF63
S1135A408B01AC01D701CCDFEB01E80FF91FD601C4
S1135A501FD02F913F91D601C3DFC60FD71FE81F78
S1135A60F91FAF91BF9114D02F913F91B9DFC60FA9
S1135A70D71FE81FF91FD601B3DFE60FF71F980100
S1135A80BE01CF0111240F911F91CF91DF91089591
S1135A90A7DF460F571FC81FD91F08F43196089572
S1135AA0689401C0E8948F929F92CF93DF9305D0BE
S1135AB0DF91CF919F908F90089588249924F401C9
S1135AC0E401B0E49F93AA279A158B049C04ED0586
S1135AD0FE05CF05D007A10798F4AD2FDC2FCF2FFB
S1135AE0FE2FE92D982C892E982F872F762F652F3E
S1135AF0542F432F322F2227B85031F7BF9127C09C
S1135B001B2EBF91BB27220F331F441F551F661F37
S1135B10771F881F991F881C991CEE1FFF1FCC1F1D
S1135B20DD1FAA1FBB1F8A149B04EC05FD05CE05CF
S1135B30DF05A007B10748F08A189B08EC09FD09A6
S1135B40CE09DF09A00BB10B21601A94E1F62EF403
S1135B509401AF01BE01CD01000C08950F930830EC
S1135B6090F0982F872F762F652F542F432F322FA5
S1135B7022270850F4CF220F331F441F551F661FDE
S1135B80771F881F991F0A95B2F70F9108952A0D60
S1135B903B1D4C1D5D1D6E1D7F1D801F911F0895B3
S1135BA00024A7FD00942A0F301D401D501D601DC8
S1135BB0701D801D901D0895EE0FFF1F0024001C12
S1135BC00BBE0790F691E02D0994CF93DF938230BA
S1135BD0910510F482E090E0E0910302F091040258
S1135BE020E030E0C0E0D0E0309711F140815181F5
S1135BF048175907C0F04817590761F48281938107
S1135C00209719F09B838A832BC09093040280937E
S1135C10030226C02115310519F04217530718F461
S1135C209A01BE01DF01EF010280F381E02DDCCF98
S1135C302115310509F1281B390B2430310590F465
S1135C4012968D919C9113976115710521F0FB01BA
S1135C509383828304C09093040280930302FD0122
S1135C60329644C0FD01E20FF31F819391932250B9
S1135C7031092D933C933AC02091010230910202E4
S1135C80232B41F42091020130910301309302024D
S1135C902093010220910001309101012115310569
S1135CA041F42DB73EB74091040150910501241BE6
S1135CB0350BE0910102F0910202E217F307A0F420
S1135CC02E1B3F0B2817390778F0AC014E5F5F4F4E
S1135CD02417350748F04E0F5F1F5093020240937C
S1135CE001028193919302C0E0E0F0E0CF01DF91E3
