S0160000697A6D4C656E2D6D6567613132382E737265633D
S11300007AC20000A2C20000A0C200009EC200008A
S11300109CC200009AC2000098C2000096C2000070
S113002094C200000C94C12F90C200008EC2000044
S11300308CC200008AC2000088C200000C94D32D38
S113004084C2000082C200000C949F2E0C94CB2E1C
S11300507CC200007AC2000078C2000076C20000B0
S113006074C2000072C2000070C200006EC20000C0
S11300706CC200006AC2000068C2000066C20000D0
S113008064C2000062C2000060C20000756E6B6E44
S11300906F77206572726F720D0A0D0A000D0A00E7
S11300A00D0A002065784C3D0020426173653D00D7
S11300B0205370656564436F723D002065784E3D42
S11300C0000D0A7371426173653D000D0A000D0A4B
S11300D0000D0A003B204C3D00B920747562653A5E
S11300E02000526573746172742073797374656D42
S11300F00D0A0D0A002020202A2A2A534156452A97
S11301002A2A2020200066726F6D2053513220006D
S11301106D6F64652072656E646572206C656E0037
S11301206F6E20006F6666003A20004552524F52AF
S113013020202000F1EAEEF0EEF1F2E83A00CAEEF7
S1130140F0F0E5EAF6E8FF00F1E8E3EDE0EBEEE2DB
S11301503A2000C2F0E5ECFF20E8EDF2E5F02E00D5
S1130160E8EDF2E5F0E2E0EB3A00C7E0F9E8F2EDA1
S1130170FBE900EDE0E6ECE8F2E520222B2200E4C6
S1130180EBFF20F3E4E0EBE5EDE8FF003C003A0090
S113019053510045646974206C656E00C0F0F5E845
S11301A0E220EFF3F1F20056696577002D3230005A
S11301B0CCE5EDFE2DE2F0E5ECFF00323000F3F18A
S11301C0F2E0EDEEE2EBE5ED00CDEEE2FBE920EF4F
S11301D0E0F0EEEBFC203A002A2AD1EEF5F0E0ED57
S11301E0E5EDEE2A2A005351313C2D3E535100D304
S11301F0F1F2E0EDEEE2EAE020E1E0E7FB00EFE01F
S1130200F0EEEBFF2020202020202020202000CE14
S1130210F8E8E1EAE020E2E2EEE4E0202020200039
S1130220C2E2E5E4E8F2E520EFE0F0EEEBFC3A00B0
S11302304552524F52202020003A2000533A003EAB
S1130240D3F1F22E20EFE0F0EEEBFC202020200092
S11302503ED3F1F22E20E2F0E5ECE5EDE82020209B
S1130260003EC8EDF2E5E3F02EF1E8E3EDE0EBE06B
S113027020003EC7E0F92E20E8EDF2E5F0E2E0EBE5
S11302802020003EC4E8F1F22E205351313C2D3E93
S1130290535135003EC4E8F1F22E205351313C2D28
S11302A03E535134003EC4E8F1F22E205351313C08
S11302B02D3E535133003EC4E8F1F22E2053513108
S11302C03C2D3E535132003ED1E1F0EEF120E0F0FE
S11302D0F5E8E2E0202020003EE2EAEB2FEEF2EA2D
S11302E0EB2E205351322020003EEAEEF0F02E2077
S11302F0E4EBE8EDFB20202020003ECFF0EEF1EC13
S11303002E20E0F0F5E8E22020200002020306009F
S1130310FF189D1465136513651366138E18651312
S1130320AB13A014EB131014C51465133514421544
S113033065135015D319F01973155E15A419D81542
S11303406513E6157B1A9F1AF9156513191A3016E9
S113035065136513651365136513651365133E16FD
S1130360651341163C1B611B861B6513041B5C163D
S113037065136513651365136513651365136A16B1
S11303806513961DE41C151D551D6513A91C7816CF
S113039065138616031F161FCE1E6513661E65138E
S11303A065138E1631205A20A11665135F1FDF16C0
S11303B06513D116D116C116D11665136814DF164C
S11303C06513ED161221EE20FB166513A820DF1627
S11303D065132117A021C321341765135A21DF1691
S11303E065139C173A225822831765130D22DF16D2
S11303F06A23AF17472465241A246513C0226513A2
S11304006513B717DB24F324CA176513A7246513F0
S11304106513651365136513651365136513651318
S11304206513651365136513651365136513651308
S1130430001F1D1F1E1F1E1F1F1E1F1E1F001F1C0F
S11304401F1E1F1E1F1F1E1F1E1F001F1C1F1E1FDF
S11304501E1F1F1E1F1E1F001F1C1F1E1F1E1F1FCF
S11304601E1F1E1F0609090600000000060F0F06C6
S113047000000000C8C9CACBD7D8D9DADBDCEDFD4F
S1130480EEEFF0F1F2F4CCCDCECFD0D1D2D3D4D59F
S1130490D6DDDEDFE7E8E9EAEBECF3F5A2F6F7F800
S11304A0F9FAFBFCFEFF202020202020B52020208C
S11304B02020202041A042A1E045A3A4A5A64BA74B
S11304C04D484FA8504354A9AA58E1ABACE2ADAE95
S11304D062AFB0B161B2B3B4E365B6B7B8B9BABB91
S11304E0BCBD6FBE7063BF79E478E5C0C1E6C2C32A
S11304F0C4C5C6C71B2D11241FBECFEFD0E1DEBF7C
S1130500CDBF11E0A0E0B1E0E0E3F6E600E00BBF10
S113051002C007900D92AA33B107D9F722E0AAE3EB
S1130520B1E001C01D92A331B207E1F712E0CBE7BD
S1130530D2E004C02197FE010E942A31CA37D107B4
S1130540C9F70E94F2120C9416335ACDCF93DF935D
S113055082E090E00E94E332EC01909340018093AA
S11305603F0180E090E00E94E33290933E0180934B
S11305703D01CC32D14018F48C32914040F01092BD
S1130580400110923F0110923E0110923D01609192
S11305903F017091400182E090E00E94F932609145
S11305A03D0170913E0180E090E00E94F932DF91BC
S11305B0CF910895AF92CF92DF92EF92FF920F9373
S11305C01F93CF93DF93CDB7DEB72B970FB6F89475
S11305D0DEBF0FBECDBF89836A834B832C830D831B
S11305E0FF82EE82D986C88681E08A87AB868091B5
S11305F03F01909140012BE0289FB001299F700D8D
S113060011246C5F7F4F4BE050E0CE0101960E94B5
S1130610FD3280913F019091400101968C3221E09E
S1130620920728F49093400180933F0104C01092F4
S1130630400110923F0180913D0190913E018C3226
S113064021E0920728F4019690933E0180933D01A6
S11306501FB7F89460913F017091400182E090E0EF
S11306600E94F93260913D0170913E0180E090E07A
S11306700E94F9321FBF2B960FB6F894DEBF0FBE4F
S1130680CDBFDF91CF911F910F91FF90EF90DF903D
S1130690CF90AF9008955F926F927F928F929F92C6
S11306A0AF92BF92CF92DF92EF92FF920F931F937C
S11306B0CF93DF936C01C0913F01D0914001009131
S11306C03D0110913E0101151105A9F1E12CF12C18
S11306D0812C912C54010F2EFCE25F2EF02D662408
S11306E063940F2EFBE07F2EF02D209711F4C52D7F
S11306F0D62D2197015011097C9EC0017D9E900D3D
S11307001124835F9F4F0E94DB32813081F47C9EF1
S1130710C0017D9E900D1124855F9F4F0E94E3329E
S1130720880E991EA11CB11CFFEFEF1AFF0A0115D8
S11307301105D9F605C0E12CF12C812C912C540122
S11307408FB7F894F60180829182A282B3828FBF20
S1130750C701DF91CF911F910F91FF90EF90DF9030
S1130760CF90BF90AF909F908F907F906F905F904D
S113077008951092400110923F0110923E01109290
S11307803D0160E070E082E090E00E94F932609107
S11307903D0170913E0180E090E00C94F93208959F
S11307A0CF93DF9300D0CDB7DEB71A8219828FB70B
S11307B0F89494B199838FBF85B1982F93708A81EF
S11307C08C7F892B8A8389819A8190933C018093C1
S11307D03B0181E080933A0117B887ED86B90F9009
S11307E00F90DF91CF910895CF939FB7F8948091A4
S11307F03A01882341F020913B0130913C01109251
S11308003A0181E001C080E09FBF8823B1F029391B
S1130810314098F4CFB7F89460913F017091400152
S113082082E090E00E94F93260913D0170913E01B6
S113083080E090E00E94F932CFBFCF9108950F93EA
S11308401F93CF93DF93CDB7DEB72B970FB6F894F2
S1130850DEBF0FBECDBF8FEE9CE00E94E3328C0161
S11308608EE090E00E94092EFC0184E390E09483E2
S1130870838385E390E09683858383E390E0908788
S1130880878381E090E09287818712830183A09817
S1130890A581B6812C91018402C0880F991F0A9406
S11308A0E2F7822B8C938FE99FE00197F1F700C068
S11308B00000A781B0852C9130E0818592852823A2
S11308C0392381E0232B09F480E085878083882302
S11308D029F0818192819487838702C014861386CC
S11308E0F0938001E0937F018EE090E00E94092E56
S11308F0FC0184E390E09483838385E390E0968312
S1130900858383E390E09087878382E090E09287F9
S1130910818712830183A198A581B6812C9181E0FE
S113092090E0018402C0880F991F0A94E2F7822B99
S11309308C938FE99FE00197F1F700C00000A78135
S1130940B0852C9130E0818592852823392381E07C
S1130950232B09F480E085878083882329F0818113
S113096092819487838702C014861386F093820150
S1130970E09381018EE090E00E94092EFC0184E363
S113098090E09483838385E390E09683858383E377
S113099090E09087878384E090E092878187128338
S11309A00183A298A581B6812C9181E090E0018415
S11309B002C0880F991F0A94E2F7822B8C938FE967
S11309C09FE00197F1F700C00000A781B0852C914A
S11309D030E0818592852823392381E0232B09F493
S11309E080E085878083882329F0818192819487A0
S11309F0838702C014861386F0938401E0938301F5
S1130A008EE090E00E94092EFC0184E390E0948340
S1130A10838385E390E09683858383E390E09087E6
S1130A20878388E090E09287818712830183A3986B
S1130A30A581B6812C9181E090E0018402C0880FE9
S1130A40991F0A94E2F7822B8C938FE99FE0019718
S1130A50F1F700C00000A781B0852C9130E08185BA
S1130A6092852823392381E0232B09F480E08587AC
S1130A708083882329F0818192819487838702C0AF
S1130A8014861386F0938601E09385018EE090E04E
S1130A900E94092EFC0184E390E09483838385E320
S1130AA090E09683858383E390E09087878380E159
S1130AB090E09287818712830183A498A581B681EF
S1130AC02C9181E090E0018402C0880F991F0A9460
S1130AD0E2F7822B8C938FE99FE00197F1F700C036
S1130AE00000A781B0852C9130E081859285282370
S1130AF0392381E0232B09F480E0858780838823D0
S1130B0029F0818192819487838702C01486138699
S1130B10F0938801E093870181E080931001809134
S1130B203D0190913E01892B59F480E090E00E94B0
S1130B30E332892B29F410920802109207021EC096
S1130B4080913F0190914001009711F0019702C0FC
S1130B508BE291E02BE0289FB001299F700D1124B6
S1130B606C5F7F4F4BE050E0CE0101960E94CB3288
S1130B708E819F81909308028093070260E070E069
S1130B8083EF9CE00E94F9322B960FB6F894DEBFF7
S1130B900FBECDBFDF91CF911F910F9108952F927A
S1130BA03F925F926F927F928F929F92AF92BF9289
S1130BB0CF92DF92EF92FF920F931F93CF93DF9325
S1130BC00F2EFFE7EF2EF1E0FF2EF02D01E411E0F0
S1130BD00F2EF9E82F2EF1E03F2EF02DA801D701BA
S1130BE06AE071E0ED91FC9111976083ED91FD91C4
S1130BF087819085EC018881282F30E0818592855A
S1130C0082239323892B99F08385948521813281D2
S1130C108217930730F4019694878387821793078A
S1130C20A0F08585811111C0758770830EC08385FE
S1130C309485009729F0019794878387892B29F459
S1130C408585882311F015861082FA0180819181AF
S1130C50009719F00197918380834E5F5F4FA2152F
S1130C60B30509F0BFCF80911001882309F401C2B4
S1130C70813009F059C0EFE7F1E0A081B1811D9600
S1130C809C910280F381E02D8585882339F1CBC1C5
S1130C90C0E0D0E0FE01EE0FFF1FEE0FFF1FEE0FCE
S1130CA0FF1FED5AFE4F10821182128213821482AA
S1130CB0158216821782D8011D921D928D0181EF33
S1130CC09CE00E94E33290931201809311012196DB
S1130CD0C530D105F9F682E08093100180917B0143
S1130CE090917C01A0917D01B0917E01892B8A2B8A
S1130CF08B2B09F4BEC110927B0110927C011092DF
S1130D007D0110927E0110924F01109250011092B9
S1130D1051011092520110924B0110924C01109209
S1130D204D0110924E01A5C1823009F0A2C18091FB
S1130D307B0190917C01A0917D01B0917E0100978F
S1130D40A105B105E1F4E0917F01F0918001858571
S1130D5081110AC0A0918101B09182011D968C91EC
S1130D60882309F463C181C18081811113C0E0919A
S1130D708101F09182018585811158C10BC00196D2
S1130D80A11DB11D80937B0190937C01A0937D01F3
S1130D90B0937E010F2EFFE7CF2EF1E0DF2EF02D72
S1130DA00F2EF0E35F2EF02DA12CB12C350146015E
S1130DB0E601E881F9818081811146C080917B013F
S1130DC090917C01A0917D01B0917E01892B8A2BA9
S1130DD08B2BD1F084E60E94FC2E852D0E94FC2EE4
S1130DE08AE30E94FC2E40917B0150917C0160912A
S1130DF07D0170917E0186E00E943B2F8DE00E9470
S1130E00FC2E8AE00E94FC2EF801808191812091C1
S1130E1011013091120131832083892BA9F480912F
S1130E207B0190917C01A0917D01B0917E01F30141
S1130E30EE0FFF1FEE0FFF1FEE0FFF1FED5AFE4FC9
S1130E4080839183A283B383F2E0CF0ED11CD401BB
S1130E50ED91FC918081813099F580917B01909195
S1130E607C01A0917D01B0917E01F301EE0FFF1F83
S1130E70EE0FFF1FEE0FFF1FED5AFE4F8483958385
S1130E80A683B783892B8A2B8B2BD1F084E40E9411
S1130E90FC2E852D0E94FC2E8AE30E94FC2E40919C
S1130EA07B0150917C0160917D0170917E0186E00F
S1130EB00E943B2F8DE00E94FC2E8AE00E94FC2EB3
S1130EC0BFEFAB1ABB0A53940E5F1F4FC5E35C120E
S1130ED06DCF90E021E0D701ED91FD917D018585F5
S1130EE0813009F4922F2E143F04A9F7911139C0CF
S1130EF080914B0190914C01A0914D01B0914E0114
S1130F000097A105B10569F480EC94EDA1E0B0E08F
S1130F1080934B0190934C01A0934D01B0934E01EB
S1130F2020C00197A109B10981309105A105B1053E
S1130F3049F080934B0190934C01A0934D01B093E1
S1130F404E010FC010924B0110924C0110924D01B2
S1130F5010924E018AE08093030281E08093100195
S1130F6088C0E0918101F09182018081813061F536
S1130F70E0917F01F09180018585811164C024C0D6
S1130F80E3E5F1E084859585A685B785448155819F
S1130F9066817781841B950BA60BB70BAC01BD0151
S1130FA0440F551F661F771F840F951FA61FB71F79
S1130FB0B695A7959795879580934F019093500187
S1130FC0A0935101B093520180914F01909150012F
S1130FD0A0915101B091520182309105A105B10552
S1130FE058F00197A109B10980934F0190935001E2
S1130FF0A0935101B093520180914F0190915001FF
S1131000A0915101B09152010197A105B10589F553
S113101010924F01109250011092510110925201FE
S11310201092100126C0911133CE58CE81E090E089
S1131030A0E0B0E080937B0190937C01A0937D01BC
S1131040B0937E01A7CE8091630190916401A09139
S11310506501B0916601892B8A2B8B2B09F490CF03
S113106084EF91E0A0E0B0E0BCCF80818823F1F26E
S113107091CEDF91CF911F910F91FF90EF90DF9070
S1131080CF90BF90AF909F908F907F906F905F9024
S11310903F902F900895AF92BF92DF92EF92FF920C
S11310A00F931F93CF93DF93EC01D62E7A0189011E
S11310B089ED90E00E942B2F409107025091080285
S11310C04F5F5F4F60E070E083E00E943B2F84ED50
S11310D090E00E942B2FAE0160E070E085E00E945A
S11310E03B2F81ED90E00E942B2FC3EFDCE00F2E0D
S11310F0FDEFAF2EFCE0BF2EF02DCE010E94E332B7
S1131100AC0160E070E088E00E943B2F80E20E9426
S1131110FC2E2296CA15DB0581F78EEC90E00E9426
S11311202B2FC0E0D0E0FE01EE0FFF1FEE0FFF1FDC
S1131130EE0FFF1FED5AFE4F408151816281738192
S113114088E00E943B2F80E20E94FC2E2196C5304D
S1131150D10549F78BEC90E00E942B2FC0E0D0E042
S1131160FE01EE0FFF1FEE0FFF1FEE0FFF1FED5AE4
S1131170FE4F448155816681778188E00E943B2F30
S113118080E20E94FC2E2196C530D10549F781ECFE
S113119090E00E942B2FDD208CF48DE20E94FC2E27
S11311A08D2D992781950CF49095AC01052E000C9A
S11311B0660B770B82E00E943B2F0BC080E20E94FB
S11311C0FC2E4D2DDD0C550B660B770B82E00E9437
S11311D03B2F8BEB90E00E942B2F4091010250E0BB
S11311E060E070E082E00E943B2F80EB90E00E9480
S11311F02B2F8EEE9CE00E94DB32482F880F550B7C
S1131200660B770B84E00E943B2F89EA90E00E94F2
S11312102B2FA70160E070E085E00E943B2F83EA5A
S113122090E00E942B2FA80160E070E085E00E940E
S11312303B2F80EA90E00E942B2F8DE990E00E94E2
S11312402B2FDF91CF911F910F91FF90EF90DF90A3
S1131250BF90AF9008952F923F924F925F926F92FA
S11312607F928F929F92AF92BF92CF92DF92EF9232
S1131270FF920F931F93CF93DF93CDB7DEB7E6971B
S11312800FB6F894DEBF0FBECDBFB0901001B11001
S11312909DC73B014C010F2EF3EFEF2EFCE0FF2E18
S11312A0F02D06E011E00F2EF0E1CF2EF1E0DF2E5D
S11312B0F02DC7010E94E332D8018D939D938D01D7
S11312C0B2E0EB0EF11C0C151D0599F7E6E0F1E018
S11312D0E280F380C080D18087010C191D098EEE55
S11312E09CE00E94DB32080F111D87FD1A951EA396
S11312F00DA3E3E5F1E084859585A685B785448152
S1131300558166817781841B950BA60BB70B89A346
S11313109AA3ABA3BCA3408951896289738984854C
S11313209585A685B785481759076A077B0708F48A
S113133083C080910A0190910B018E199F099AA78D
S113134089A780899189A289B38944855585668551
S11313507785841B950BA60BB70B8D8F9E8FAF8F54
S1131360B8A30D8D1E8D2F8D38A1EDA1FEA129A04E
S11313703AA04BA05CA0AF0160E070E080E090E098
S1131380DC01ECA75DA76EA77FA788AB99ABAAABDE
S1131390BBABA02EB12EC22ED32EE12CF12C00E03B
S11313A010E02CA53DA540E050E060E070E080E056
S11313B090E00E944D3062015101E12CF12C870133
S11313C02CA6BDA6CEA6DFA6E8AAF9AA0AAB1BAB3B
S11313D0E12CF12C00E010E00E94A030822F932F2A
S11313E098A78FA389A59AA52FA138A5821B930B33
S11313F0D40111969C938E9311E01093030288E01C
S1131400809301028FA198A591958195910990935C
S113141006028093050284EFF30180832FA138A58F
S113142049A55AA564EF8D919C9135DE1093100166
S1131430BB24B3940C94D812E3E5F1E044815581C4
S11314406681778180A191A1A2A1B3A14817590710
S11314506A077B0708F442C7809173019091740175
S1131460A0917501B0917601892B8A2B8B2B09F001
S1131470AFC634C7EBA5F0E0EE0FFF1FEE0FFF1F62
S1131480EE0FFF1FE55AFE4F80819181A281B38147
S1131490892B8A2B8B2BA9F0A3E5B1E016C0EBA511
S11314A0F0E0EE0FFF1FEE0FFF1FEE0FFF1FE55AD8
S11314B0FE4F4081518162817381452B462B472B1E
S11314C021F48BA581508BA70FC71C960D911D91FC
S11314D02D913C911F97EBA5F0E0EE0FFF1FEE0F4F
S11314E0FF1FEE0FFF1FED5AFE4F408151816281B5
S11314F07381041715072607370708F401C71C96DC
S11315000D911D912D913C911F97EBA5F0E0EE0FED
S1131510FF1FEE0FFF1FEE0FFF1FE55AFE4F408126
S1131520518162817381041715072607370708F074
S1131530E7C6DAC681939193A193B193E217F307B7
S1131540C9F7EBA5F0E0EE0FFF1FEE0FFF1FEE0F44
S1131550FF1FED5AFE4F408151816281738180915A
S1131560570190915801A0915901B0915A018417E3
S11315709507A607B70708F0F2C6EBA5F0E0EE0F53
S1131580FF1FEE0FFF1FEE0FFF1FED5AFE4F80816E
S11315909181A281B381892B8A2B8B2B09F4DFC61D
S11315A08BA5853008F4B4C6DAC640915701509132
S11315B058016091590170915A01EBA5F0E0EE0FCA
S11315C0FF1FEE0FFF1FEE0FFF1FED5AFE4F80812E
S11315D09181A281B381481759076A077B0708F4F0
S11315E0EEC6EBA5F0E0EE0FFF1FEE0FFF1FEE0FB0
S11315F0FF1FED5AFE4F80819181A281B381892B17
S11316008A2B8B2B09F4DBC68BA5853008F4B0C676
S1131610D6C640915701509158016091590170917B
S11316205A01EBA5F0E0EE0FFF1FEE0FFF1FEE0FC8
S1131630FF1FE55AFE4F80819181A281B381481733
S113164059076A077B0708F4EAC6EBA5F0E0EE0F3A
S1131650FF1FEE0FFF1FEE0FFF1FE55AFE4F8081A5
S11316609181A281B381892B8A2B8B2B09F4D7C654
S11316708BA590E0019605970CF4AAC6D0C68DEE12
S11316809CE00E94DB32882309F4A0C040915F01F2
S1131690509160016091610170916201EBA5F0E0ED
S11316A0EE0FFF1FEE0FFF1FEE0FFF1FED5AFE4F51
S11316B080819181A281B381481759076A077B070A
S11316C008F4DDC6EBA5F0E0EE0FFF1FEE0FFF1FE1
S11316D0EE0FFF1FED5AFE4F80819181A281B381ED
S11316E0892B8A2B8B2B09F4CAC68BA5853008F469
S11316F09FC6C5C640915F01509160016091610130
S113170070916201EBA5F0E0EE0FFF1FEE0FFF1FDB
S1131710EE0FFF1FE55AFE4F80819181A281B381B4
S1131720481759076A077B0708F4D9C6EBA5F0E008
S1131730EE0FFF1FEE0FFF1FEE0FFF1FE55AFE4FC8
S113174080819181A281B381892B8A2B8B2B09F40F
S1131750C6C68BA590E0019605970CF499C6BFC642
S1131760EBA5F0E0EE0FFF1FEE0FFF1FEE0FFF1FC4
S1131770E55AFE4F408151816281738180915F01FE
S113178090916001A0916101B09162018417950765
S1131790A607B70708F0D3C6EBA5F0E0EE0FFF1FCE
S11317A0EE0FFF1FEE0FFF1FE55AFE4F8081918160
S11317B0A281B381892B8A2B8B2B09F4C0C68BA5FC
S11317C090E0019605970CF493C6B9C6EBA5F0E03A
S11317D0EE0FFF1FEE0FFF1FEE0FFF1FE55AFE4F28
S11317E040815181628173818091570190915801A8
S11317F0A0915901B0915A0184179507A607B7071C
S113180008F0CDC6EBA5F0E0EE0FFF1FEE0FFF1FB3
S1131810EE0FFF1FE55AFE4F80819181A281B381B3
S1131820892B8A2B8B2B09F4BAC68BA590E00196E1
S113183005970CF48DC6B3C68FE996E8A1E0B0E035
S11318408D8F9E8FAF8FB8A380E09AE0D8014D9121
S11318505D916D917D918D01CD8CDE8CEF8CF8A026
S11318604C155D056E057F0528F44D8F5E8F6F8FD7
S113187078A3982F8F5F873049F74D8D5E8D6F8DDC
S113188078A14F3956486140710539F48AE0809354
S1131890030281E0809310018BC69093010281E0E2
S11318A0809303029111A5C0EBA5F0E0EE0FFF1F9A
S11318B0EA5FFE4F808191812091060130910701FA
S11318C0821B930B9AA789A78D8D9E8DAF8DB8A18E
S11318D0EDA1FEA129A03AA04BA05CA05C016D0182
S11318E0E12CF12C87018CA7BDA6CEA6DFA6E8AA21
S11318F0F9AA0AAB1BAB8F01AE2EB12EC12CD12C91
S1131900E12CF12C00E010E02CA53DA54EA55FA52F
S113191060E070E080E090E00E944D3001E00E94C1
S1131920FC302CA73CAB4DAB5EABB62FA72FF82FEA
S1131930E92F7A2F8F2F9E2F02E00E94FC30A22ED7
S1131940B32EC42ED52EE62EF72E082F192F2CA534
S11319503CA94DA95EA96B2F7A2F8F2F9E2F0E9431
S1131960153162015101E12CF12C87012CA6BDA691
S1131970CEA6DFA6E8AAF9AA0AAB1BABE12CF12C90
S113198000E010E00E94A030A5E00E941E310F2E5E
S1131990FAE0AF2EF02DB12CC12CD12C0E94A03036
S11319A0822F932F98A78FA389A59AA52FA138A535
S11319B0821B930BD40111969C938E938BA58195D6
S11319C0F30180838FA198A59195819591099093B6
S11319D00602809305022FA138A549A55AA5608166
S11319E08D919C9158DB81E080931001BB24B394CA
S11319F0DFC5913009F0A1C0EBA5F0E0EE0FFF1FA9
S1131A00EA5FFE4F808191812091060130910701A8
S1131A10821B930B9AA789A78D8D9E8DAF8DB8A13C
S1131A20EDA1FEA129A03AA04BA05CA05C016D0130
S1131A30E12CF12C87018CA7BDA6CEA6DFA6E8AACF
S1131A40F9AA0AAB1BAB8F01AE2EB12EC12CD12C3F
S1131A50E12CF12C00E010E02CA53DA54EA55FA5DE
S1131A6060E070E080E090E00E944D3001E00E9470
S1131A70FC302CA73CAB4DAB5EABB62FA72FF82F99
S1131A80E92F7A2F8F2F9E2F02E00E94FC30A22E86
S1131A90B32EC42ED52EE62EF72E082F192F2CA5E3
S1131AA03CA94DA95EA96B2F7A2F8F2F9E2F0E94E0
S1131AB0153162015101E12CF12C87012CA6BDA640
S1131AC0CEA6DFA6E8AAF9AA0AAB1BABE12CF12C3F
S1131AD000E010E00E94A030A5E00E941E310F2E0D
S1131AE0FAE0AF2EF02DB12CC12CD12C0E94A030E5
S1131AF0822F932F98A78FA389A59AA52FA138A5E4
S1131B00820F931FD40111969C938E938BA5F3019E
S1131B1080838FA198A590930602809305022FA13C
S1131B2038A549A55AA560818D919C91B4DA81E0CC
S1131B3080931001BB24B3943BC5953009F0A2C037
S1131B40EBA5F0E0EE0FFF1FE85FFE4F808191816F
S1131B502091060130910701821B930B9AA789A754
S1131B608D8D9E8DAF8DB8A1EDA1FEA129A03AA0C7
S1131B704BA05CA05C016D01E12CF12C87018CA7CA
S1131B80BDA6CEA6DFA6E8AAF9AA0AAB1BAB8F01B5
S1131B90AE2EB12EC12CD12CE12CF12C00E010E0A2
S1131BA02CA53DA54EA55FA560E070E080E090E027
S1131BB00E944D3001E00E94FC302CA73CAB4DABA1
S1131BC05EABB62FA72FF82FE92F7A2F8F2F9E2FDA
S1131BD002E00E94FC30A22EB32EC42ED52EE62E97
S1131BE0F72E082F192F2CA53CA94DA95EA96B2F00
S1131BF07A2F8F2F9E2F0E94153162015101E12C03
S1131C00F12C87012CA6BDA6CEA6DFA6E8AAF9AAC8
S1131C100AAB1BABE12CF12C00E010E00E94A030D9
S1131C20A5E00E941E310F2EFAE0AF2EF02DB12C4C
S1131C30C12CD12C0E94A030822F932F98A78FA360
S1131C4089A59AA52FA138A5820F931FD4011196B7
S1131C509C938E938BA58F5FF30180838FA198A5AE
S1131C6090930602809305022FA138A549A55AA591
S1131C7060818D919C910FDA81E080931001BB24E7
S1131C80B39496C4923009F0A2C0EBA5F0E0EE0F35
S1131C90FF1FEA5FFE4F80819181209108013091FE
S1131CA00901821B930B9AA789A78D8D9E8DAF8DF9
S1131CB0B8A1EDA1FEA129A03AA04BA05CA05C01B3
S1131CC06D01E12CF12C87018CA7BDA6CEA6DFA661
S1131CD0E8AAF9AA0AAB1BAB8F01AE2EB12EC12C18
S1131CE0D12CE12CF12C00E010E02CA53DA54EA553
S1131CF05FA560E070E080E090E00E944D3001E07C
S1131D000E94FC302CA73CAB4DAB5EABB62FA72F8B
S1131D10F82FE92F7A2F8F2F9E2F02E00E94FC309C
S1131D20A22EB32EC42ED52EE62EF72E082F192F51
S1131D302CA53CA94DA95EA96B2F7A2F8F2F9E2F1E
S1131D400E94153162015101E12CF12C87012CA66E
S1131D50BDA6CEA6DFA6E8AAF9AA0AAB1BABE12C66
S1131D60F12C00E010E00E94A030A5E00E941E319A
S1131D700F2EFAE0AF2EF02DB12CC12CD12C0E94E5
S1131D80A030822F932F98A78FA389A59AA52FA15E
S1131D9038A5820F931FD40111969C938E938BA523
S1131DA0865FF30180838FA198A5909306028093A8
S1131DB005022FA138A549A55AA560818D919C9152
S1131DC06AD981E080931001BB24B394F1C39630A7
S1131DD009F0A2C0EBA5F0E0EE0FFF1FE85FFE4F95
S1131DE0808191812091080130910901821B930B1C
S1131DF09AA789A78D8D9E8DAF8DB8A1EDA1FEA167
S1131E0029A03AA04BA05CA05C016D01E12CF12C4F
S1131E1087018CA7BDA6CEA6DFA6E8AAF9AA0AABBD
S1131E201BAB8F01AE2EB12EC12CD12CE12CF12C89
S1131E3000E010E02CA53DA54EA55FA560E070E094
S1131E4080E090E00E944D3001E00E94FC302CA71D
S1131E503CAB4DAB5EABB62FA72FF82FE92F7A2FF3
S1131E608F2F9E2F02E00E94FC30A22EB32EC42E90
S1131E70D52EE62EF72E082F192F2CA53CA94DA9F7
S1131E805EA96B2F7A2F8F2F9E2F0E94153162012E
S1131E905101E12CF12C87012CA6BDA6CEA6DFA60C
S1131EA0E8AAF9AA0AAB1BABE12CF12C00E010E084
S1131EB00E94A030A5E00E941E310F2EFAE0AF2E42
S1131EC0F02DB12CC12CD12C0E94A030822F932F45
S1131ED098A78FA389A59AA52FA138A5820F931F30
S1131EE0D40111969C938E938BA5855FF301808317
S1131EF08FA198A590930602809305022FA138A57F
S1131F0049A55AA560818D919C91C5D881E08093A3
S1131F101001BB24B3944CC3933009F0A6C0EBA5C5
S1131F20F0E0EE0FFF1FE85FFE4F8081918120916A
S1131F30080130910901821B930B9AA789A78D8D03
S1131F409E8DAF8DB8A1EDA1FEA129A03AA04BA012
S1131F505CA05C016D01E12CF12C87018CA7BDA66E
S1131F60CEA6DFA6E8AAF9AA0AAB1BAB8F01AE2E58
S1131F70B12EC12CD12CE12CF12C00E010E02CA5C9
S1131F803DA54EA55FA560E070E080E090E00E9472
S1131F904D3001E00E94FC302CA73CAB4DAB5EAB56
S1131FA0B62FA72FF82FE92F7A2F8F2F9E2F02E01D
S1131FB00E94FC30A22EB32EC42ED52EE62EF72E70
S1131FC0082F192F2CA53CA94DA95EA96B2F7A2F98
S1131FD08F2F9E2F0E94153162015101E12CF12CAB
S1131FE087012CA6BDA6CEA6DFA6E8AAF9AA0AAB4D
S1131FF01BABE12CF12C00E010E00E94A030A5E026
S11320000E941E310F2EFAE0AF2EF02DB12CC12C00
S1132010D12C0E94A030822F932F98A78FA389A53B
S11320209AA52FA138A5821B930BD40111969C93DA
S11320308E939BA585EF891BF30180838FA198A5BF
S113204091958195910990930602809305022FA1A1
S113205038A549A55AA560818D919C911CD881E031
S113206080931001BB24B394A3C2943009F0A6C09A
S1132070EBA5F0E0EE0FFF1FE85FFE4F808191813A
S11320802091060130910701821B930B9AA789A71F
S11320908D8D9E8DAF8DB8A1EDA1FEA129A03AA092
S11320A04BA05CA05C016D01E12CF12C87018CA795
S11320B0BDA6CEA6DFA6E8AAF9AA0AAB1BAB8F0180
S11320C0AE2EB12EC12CD12CE12CF12C00E010E06D
S11320D02CA53DA54EA55FA560E070E080E090E0F2
S11320E00E944D3001E00E94FC302CA73CAB4DAB6C
S11320F05EABB62FA72FF82FE92F7A2F8F2F9E2FA5
S113210002E00E94FC30A22EB32EC42ED52EE62E61
S1132110F72E082F192F2CA53CA94DA95EA96B2FCA
S11321207A2F8F2F9E2F0E94153162015101E12CCD
S1132130F12C87012CA6BDA6CEA6DFA6E8AAF9AA93
S11321400AAB1BABE12CF12C00E010E00E94A030A4
S1132150A5E00E941E310F2EFAE0AF2EF02DB12C17
S1132160C12CD12C0E94A030822F932F98A78FA32B
S113217089A59AA52FA138A5821B930BD40111968A
S11321809C938E938BA58095F30180838FA198A552
S113219091958195910990930602809305022FA150
S11321A038A549A55AA560818D919C910E944B0840
S11321B081E080931001BB24B394FAC18CE890E0D1
S11321C00E942B2F81E080931001F2C1B12CF0C149
S11321D080910E0190910F018C199D099AA789A7EE
S11321E0E3E5F1E084819581A681B78140A151A105
S11321F062A173A1841B950BA60BB70B8D8F9E8FC9
S1132200AF8FB8A30D8D1E8D2F8D38A1EDA1FEA12A
S113221029A03AA04BA05CA0AF0160E070E080E090
S113222090E0DC01ECA75DA76EA77FA788AB99AB14
S1132230AAABBBABA02EB12EC22ED32EE12CF12C17
S113224000E010E02CA53DA540E050E060E070E027
S113225080E090E00E944D3062015101E12CF12CAC
S113226087012CA6BDA6CEA6DFA6E8AAF9AA0AABCA
S11322701BABE12CF12C00E010E00E94A030822F77
S1132280932F98A78FA389A59AA52FA138A5820F6C
S1132290931FD40111969C938E9311E01093030223
S11322A089E0809301028FA198A590930602809300
S11322B0050284E0F30180832FA138A549A55AA51E
S11322C064E08D919C910E944B08D3018C91809382
S11322D0020210931001BB24B3946AC182E08BA75D
S11322E08BA5843008F4C6C88E010F5F1F4F9E0172
S11322F0235E3F4FF8018FE996E8A1E0B0E01AC9E8
S11323008BA58F5F8BA78BA5843008F4C8C8ECCF4E
S1132310EBA5F0E0EE0FFF1FEE0FFF1FEE0FFF1F08
S1132320ED5AFE4F80819181A281B3814091570182
S1132330509158016091590170915A01841B950B79
S1132340A60BB70B8D8F9E8FAF8FB8A38D8D9E8DEF
S1132350AF8DB8A189839A83AB83BC8326C98FE9E7
S113236096E8A1E0B0E089839A83AB83BC831DC95E
S11323708091570190915801A0915901B0915A014F
S1132380EBA5F0E0EE0FFF1FEE0FFF1FEE0FFF1F98
S1132390ED5AFE4F4081518162817381841B950BFC
S11323A0A60BB70B8D8F9E8FAF8FB8A38D8D9E8D8F
S11323B0AF8DB8A18D839E83AF83B8872AC98FE977
S11323C096E8A1E0B0E08D839E83AF83B88721C9EE
S11323D08091570190915801A0915901B0915A01EF
S11323E0EBA5F0E0EE0FFF1FEE0FFF1FEE0FFF1F38
S11323F0E55AFE4F4081518162817381841B950BA4
S1132400A60BB70B8D8F9E8FAF8FB8A38D8D9E8D2E
S1132410AF8DB8A18D8B9E8BAF8BB88F30C98FE9F0
S113242096E8A1E0B0E08D8B9E8BAF8BB88F27C967
S113243080915F0190916001A0916101B09162016E
S1132440EBA5F0E0EE0FFF1FEE0FFF1FEE0FFF1FD7
S1132450ED5AFE4F4081518162817381841B950B3B
S1132460A60BB70B8D8F9E8FAF8FB8A38D8D9E8DCE
S1132470AF8DB8A189879A87AB87BC873BC98FE9A1
S113248096E8A1E0B0E089879A87AB87BC8732C918
S113249080915F0190916001A0916101B09162010E
S11324A0EBA5F0E0EE0FFF1FEE0FFF1FEE0FFF1F77
S11324B0E55AFE4F4081518162817381841B950BE3
S11324C0A60BB70B8D8F9E8FAF8FB8A38D8D9E8D6E
S11324D0AF8DB8A1898F9A8FAB8FBC8F41C98FE91B
S11324E096E8A1E0B0E0898F9A8FAB8FBC8F38C992
S11324F0EBA5F0E0EE0FFF1FEE0FFF1FEE0FFF1F27
S1132500E55AFE4F80819181A281B38140915F01A0
S1132510509160016091610170916201841B950B7F
S1132520A60BB70B8D8F9E8FAF8FB8A38D8D9E8D0D
S1132530AF8DB8A18D879E87AF87B88B47C98FE9C8
S113254096E8A1E0B0E08D879E87AF87B88B3EC93F
S1132550EBA5F0E0EE0FFF1FEE0FFF1FEE0FFF1FC6
S1132560E55AFE4F80819181A281B3814091570148
S1132570509158016091590170915A01841B950B37
S1132580A60BB70B8D8F9E8FAF8FB8A38D8D9E8DAD
S1132590AF8DB8A1898B9A8BAB8BBC8B4DC98FE95E
S11325A096E8A1E0B0E0898B9A8BAB8BBC8B44C9D5
S11325B08B2DE6960FB6F894DEBF0FBECDBFDF912C
S11325C0CF911F910F91FF90EF90DF90CF90BF902C
S11325D0AF909F908F907F906F905F904F903F90BF
S11325E02F900895CF93DF9300D01F92CDB7DEB71D
S11325F00E94F1260E940C2578940E94B12960E083
S113260080E00E94DD2A61E371E00E94A52B82EE46
S113261090E00E942B2F2FEF43ED80E321504040A8
S11326208040E1F700C00000E5D40E94E92F11E0EA
S11326300F2EFEEC8F2EF1E09F2EF02D0F2EFAE0E0
S1132640BF2EF02D0E94F22FBE016D5F7F4FCE0191
S113265001960E942B098823A1F189819A819C010A
S11326602C543D412D37354128F0B092030210938C
S1132670040227C09093300180932F011093040229
S113268080913F01909140010196909308028093BC
S113269007028B81809302027FB6F894C980DA80A6
S11326A0E0903F01F0904001FFEFEF1AFF0AAB808A
S11326B0F401018122814481658186810E94DA02CC
S11326C07FBE0E94F40399D4BDCF08950F931F9346
S11326D0CF93DF931F92CDB7DEB78530B1F561E0BC
S11326E087E00E94DD2A89832091020227FD21953B
S11326F0022E000C330B440B550B62E0CE01019605
S11327000E94F42B69E372E0CE0101960E94B22B81
S1132710009105021091060211234CF46DE2CE01E2
S113272001960E94442B11950195110905C06BE295
S1132730CE0101960E94442B9801110F440B550BB6
S113274064E0CE0101960E94F42B0F90DF91CF91AB
S11327501F910F910895EF92FF921F93CF93DF93F0
S11327601F92CDB7DEB761E085E00E94DD2A898340
S11327700F2EF8EBEF2EF1E0FF2EF02D10E08091FC
S1132780BD01181740F41092E4016AE2CE010196EB
S11327900E94442B13C018130AC0F7016081605DC6
S11327A0CE0101960E94442B1092E40107C01092BE
S11327B0E4016DE2CE0101960E94442B1F5FFFEFFE
S11327C0EF1AFF0A1530D9F60F90DF91CF911F91C0
S11327D0FF90EF900895E091DE01F091DF0191E028
S11327E090832091BD0130E0F901E854FE4F9081BF
S11327F0992329F0F901E854FE4F91509083ABDFFF
S11328008FB7F89440E95FE561E070E04093BF0161
S11328105093C0016093C1017093C2018FBF0895AA
S1132820E091DE01F091DF0191E090832091BD0100
S113283030E0F901E854FE4F9081993028F4F90111
S1132840E854FE4F9F5F908386DF8FB7F89440E98A
S11328505FE561E070E04093BF015093C001609375
S1132860C1017093C2018FBF08958FB7F89410927D
S1132870BF011092C0011092C1011092C2018FBF1A
S1132880E091DE01F091DF0110820E94B12960E045
S113289080E00E94DD2A60E272E00E94E72B109241
S11328A0BD01E8EBF1E010821182128213821482DE
S11328B08FB7F89440E95FE561E070E04093BF01B1
S11328C05093C0016093C1017093C2018FBF0895FA
S11328D0E091DE01F091DF0110820E94B12960E0F5
S11328E080E00E94DD2A6FE771E00E94E72B61E03F
S11328F080E00E94DD2A63E771E00E94E72B8FB736
S1132900F89440E95FE561E070E04093BF015093C3
S1132910C0016093C1017093C2018FBF0895809379
S1132920C30190E1899FF0011124E45EFC4F2591DD
S1132930349180E0F9010995089581E0F0CF08957C
S11329409091BD01992399F091509093BD0103DFBB
S11329508FB7F89440E95FE561E070E04093BF0110
S11329605093C0016093C1017093C2018FBF8FB7B0
S1132970F8941092BF011092C0011092C1011092FC
S1132980C2018FBF80E0CBCF0895CF92DF92EF9248
S1132990FF920F931F93CF93DF939FB7F89440E96F
S11329A05FE561E070E04093BF015093C001609324
S11329B0C1017093C2019FBFE091DE01F091DF017C
S11329C01082E091BD01E43048F4EF5FE093BD0173
S11329D0F0E0E854FE4F1082BEDE4BC00F2EF8EB41
S11329E0EF2EF1E0FF2EF02DC0E0D0E0CC24C39414
S11329F0DD24D39400E0F70111917F01CE018851C9
S1132A00934F0E94DB321813D02EFE01E55FFC4F7A
S1132A10E4911E13C02E2196C530D10561F7D11063
S1132A2002C0CC2019F082E07ADF23C00E94B129D1
S1132A3060E080E00E94DD2A6FE072E00E94E72BF4
S1132A4061E080E00E94DD2A6EEF71E00E94E72BD6
S1132A508FB7F89448E853E160E070E04093BF0119
S1132A605093C0016093C1017093C2018FBF84E091
S1132A7056DFDF91CF911F910F91FF90EF90DF9080
S1132A80CF9008958FB7F8941092BF011092C001AF
S1132A901092C1011092C2018FBF80E040CF08950F
S1132AA08FB7F8941092BF011092C0011092C10127
S1132AB01092C2018FBF80E032CF0895E091DE0111
S1132AC0F091DF011082863069F48FB7F894109288
S1132AD0BF011092C0011092C1011092C2018FBFB8
S1132AE08EE01DCF08958FB7F8941092BF01109215
S1132AF0C0011092C1011092C2018FBFE091DE01AA
S1132B00F091DF0110828091BD01811103C088E042
S1132B1006CF0895813019F489E001CF08958230F9
S1132B2019F48FE0FCCE0895833019F48AE0F7CECF
S1132B300895843049F481E08093B60182E0809363
S1132B40B70183E0ECCE0895853041F482E08093B0
S1132B50B60183E08093B701E2CE0895863049F44C
S1132B6083E08093B60184E08093B70183E0D7CEFD
S1132B700895873049F484E08093B60185E080931A
S1132B80B70183E0CCCE0895883019F48BE0C7CE2A
S1132B900895893019F48CE0C2CE08958A3019F46E
S1132BA087E0BDCE08958B3011F485E0B8CE08954A
S1132BB08FB7F8941092BF011092C0011092C10116
S1132BC01092C2018FBF80E0AACE08958FB7F89407
S1132BD01092BF011092C0011092C1011092C20163
S1132BE08FBFE091DE01F091DF01108282E097CE89
S1132BF008958FB7F8941092BF011092C0011092FB
S1132C00C1011092C2018FBFE091DE01F091DF019A
S1132C1010826091B4017091B5018091B60190E089
S1132C20880F991F8D50934F0E94133361E080E009
S1132C300E94DD2A68ED71E00E94E72B8FB7F894BB
S1132C4048E853E160E070E04093BF015093C00155
S1132C506093C1017093C2018FBF86E060CE089576
S1132C608FB7F8941092BF011092C0011092C10165
S1132C701092C2018FBF82E052CE089580E04FCE01
S1132C8008958FB7F8941092BF011092C00110926A
S1132C90C1011092C2018FBFE091DE01F091DF010A
S1132CA010821092BF011092C0011092C1011092C3
S1132CB0C20182E034CE08958FB7F8941092BF0118
S1132CC01092C0011092C1011092C2018FBF82E024
S1132CD026CE08958FB7F8941092BF011092C001C8
S1132CE01092C1011092C2018FBF82E018CE0895E4
S1132CF08FB7F8941092BF011092C0011092C101D5
S1132D001092C2018FBF80E00ACE0895E091DE01E7
S1132D10F091DF01108280E002CE08958FB7F8941D
S1132D201092BF011092C0011092C1011092C20111
S1132D308FBFE091DE01F091DF01108280E0EFCDE2
S1132D4008958FB7F8941092BF011092C0011092A9
S1132D50C1011092C2018FBFE091DE01F091DF0149
S1132D601082609196017091970180919A0190E090
S1132D70880F991F8D50934F0E94F93280E0CFCD78
S1132D8008958FB7F8941092BF011092C001109269
S1132D90C1011092C2018FBF0E94B90380E0BFCD70
S1132DA008958FB7F8941092BF011092C001109249
S1132DB0C1011092C2018FBF82E0B1CD08958FB7D7
S1132DC0F8941092BF011092C0011092C1011092A8
S1132DD0C2018FBF80E0A3CD08958FB7F8941092FD
S1132DE0BF011092C0011092C1011092C2018FBFA5
S1132DF082E095CD08958FB7F8941092BF01109298
S1132E00C0011092C1011092C2018FBFE091DE0196
S1132E10F091DF0110822091940130919501A0ED91
S1132E20B7E00E943E3028EE33E040E050E00E94DC
S1132E300030B90181EF9CE00E94F93282E06FCD4D
S1132E4008958FB7F8941092BF011092C0011092A8
S1132E50C1011092C2018FBFE091DE01F091DF0148
S1132E60108282E05CCD0895CF92DF92EF92FF92C0
S1132E708FB7F8941092BF011092C0011092C10153
S1132E801092C2018FBFE091DE01F091DF01108248
S1132E902091920130919301A0EDB7E00E943E3061
S1132EA028EE33E040E050E00E94003069017A01EE
S1132EB0B9018FEE9CE00E94F932EFE7F1E0A081C6
S1132EC0B1811296DC92CE921197A281B3811296AF
S1132ED0DC92CE921197A481B5811296DC92CE92A7
S1132EE01197A681B7811296DC92CE921197008435
S1132EF0F185E02DD282C18282E011DDFF90EF9056
S1132F00DF90CF9008958FB7F8941092BF0110927C
S1132F10C0011092C1011092C2018FBFE091DE0185
S1132F20F091DF011082609191018EEE9CE00E948D
S1132F30E83282E0F4CC08958FB7F8941092BF0180
S1132F401092C0011092C1011092C2018FBFE09192
S1132F50DE01F091DF01108282E0E1CC0895E0917E
S1132F60DE01F091DF01108280E0D9CC08958FB7A3
S1132F70F8941092BF011092C0011092C1011092F6
S1132F80C2018FBFE091DE01F091DF01108282E087
S1132F90C6CC08958FB7F8941092BF011092C00167
S1132FA01092C1011092C2018FBFE091DE01F09135
S1132FB0DF011082609189018DEE9CE00E94E8326D
S1132FC061E080E00E94DD2A65EF70E00E94E72B5B
S1132FD08FB7F89448E853E160E070E04093BF0194
S1132FE05093C0016093C1017093C2018FBF86E00A
S1132FF096CC089580E093CC0895CF93DF931F92ED
S1133000CDB7DEB7BE016F5F7F4F8091DE01909137
S1133010DF010E9445299FB7F8944091BF01509168
S1133020C0016091C1017091C2019FBF413051053F
S113303061057105D1F48FB7F8941092BF01109215
S1133040C0011092C1011092C2018FBF8091C301CF
S113305020E1829FC0011124825E9C4FFC012591D6
S113306034918981F901099512C09091C301E82F27
S1133070F0E028E0929FE00DF11D1124EE0FFF1FF8
S1133080E05FFC4F259134918981F90109950F90F6
S1133090DF91CF9108952FB7F8948091BF0190915B
S11330A0C001A091C101B091C20182309105A10576
S11330B0B10558F00197A109B1098093BF0190931C
S11330C0C001A093C101B093C2012FBF0895CF9353
S11330D0DF9300D000D01F92CDB7DEB7CE010196AA
S11330E00E944B0361E087E00E94DD2A8D836CE33C
S11330F072E0CE0105960E94B22B29813A814B8160
S11331005C8167E0CE0105960E94F42B0F900F902E
S11331100F900F900F90DF91CF9108950F931F930D
S1133120CF93DF931F92CDB7DEB78FB7F894109289
S1133130BF011092C0011092C1011092C2018FBF51
S1133140E091DE01F091DF0110820E94B129BFDF1E
S113315080913D0190913E01892B39F480E090E00B
S11331600E94E332892B09F444C080913F0190917D
S11331704001009739F48BE291E09093A001809391
S11331809F0105C001979093A00180939F018091B6
S11331909F019091A0012BE0289FB001299F700D01
S11331A011246C5F7F4F4BE050E081EA91E00E9474
S11331B0CB3260E080E00E94DD2A898301EA11E0DD
S11331C0F8012581368140E050E063E0CE010196AC
S11331D00E94F42B6AE3CE0101960E94442BF8016D
S11331E02781308540E050E065E0CE0101960E94E1
S11331F06C2C0F90DF91CF911F910F910895EF9256
S1133200FF920F931F93CF93DF931F92CDB7DEB737
S113321080910402882399F1109204020E94B1293A
S113322060E080E00E94DD2A8983809103028A3075
S113323031F460E372E0CE0101960E94B22B8091DA
S113324003028130D9F4209107023091080240E052
S113325050E063E0CE0101960E94F42B6AE3CE01B4
S113326001960E94442B20912F013091300140E0BF
S113327050E065E0CE0101960E946C2C28DF61E0ED
S113328080E00E94DD2A89830FE711E00F2EF9E820
S1133290EF2EF1E0FF2EF02DD801ED91FD918D017F
S11332A08585882331F060E0CE0101960E94442B8D
S11332B005C061E0CE0101960E94442B0E151F0546
S11332C059F760E08BE00E94DD2A89838091C40174
S11332D0882319F12091D00130E040E050E062E011
S11332E0CE0101960E946C2C8091C501811106C00B
S11332F06AE3CE0101960E94442B05C060E2CE0130
S113330001960E94442B2091CF0130E040E050E030
S113331062E0CE0101960E94F42B0F90DF91CF91D1
S11333201F910F91FF90EF9008950E94B129E091B1
S1133330BD01F0E0EE0FFF1FED5EFE4F6081718175
S113334080E00C94E72B0895CF93C82F8FB7F8949F
S11333501092BF011092C0011092C1011092C201DB
S11333608FBFE091DE01F091DF0110820E94B1294C
S113337060E080E00E94DD2A8093E8011092BD01A4
S11333808C2FD3DF8FB7F89440E95FE561E070E0FC
S11333904093BF015093C0016093C1017093C20177
S11333A08FBFCF910895E091DE01F091DF0110828B
S11333B09091BD01992321F091509093BD01B5DF07
S11333C08FB7F89440E95FE561E070E04093BF0196
S11333D05093C0016093C1017093C2018FBF0895DF
S11333E0E091DE01F091DF0110829091BD019B30EC
S11333F020F49F5F9093BD0198DF8FB7F89440E964
S11334005FE561E070E04093BF015093C0016093B9
S1133410C1017093C2018FBF08952091B40130910E
S1133420B50140E050E065E08091BE010C945F2C52
S113343008951F93CF93DF931F92CDB7DEB7182F54
S11334408FB7F8941092BF011092C0011092C1017D
S11334501092C2018FBFE091DE01F091DF01108272
S11334602091B60130E0C901880F991F8D50934F08
S11334700E94E3329093B5018093B4010E94B12974
S113348060E082E00E94DD2A6FEE71E00E94E72B8B
S113349061E081E00E94DD2A898366EE71E0CE015D
S11334A001960E94B22B2091B70130E040E050E039
S11334B061E0CE0101960E94F42B6DE3CE010196EA
S11334C00E94442B89818093BE01812FA6DF8FB790
S11334D0F89440E95FE561E070E04093BF015093E8
S11334E0C0016093C1017093C2018FBF0F90DF913F
S11334F0CF911F910895E091DE01F091DF0191E0F9
S113350090832091B4013091B5012115310539F032
S1133510215031093093B5012093B4017EDF8FB778
S1133520F89440E95FE561E070E04093BF01509397
S1133530C0016093C1017093C2018FBF0895E091EF
S1133540DE01F091DF0191E090832091B40130918C
S1133550B50128399AE3390738F42F5F3F4F309388
S1133560B5012093B40159DF8FB7F89440E95FE5C2
S113357061E070E04093BF015093C0016093C101CA
S11335807093C2018FBF0895EF92FF921F93CF9360
S1133590DF931F92CDB7DEB70F2EF8EBEF2EF1E0DD
S11335A0FF2EF02D10E061E0812F0E94DD2A898337
S11335B08091BD01181740F41092E4016AE2CE0133
S11335C001960E94442B13C018130AC0F7016081AE
S11335D0605DCE0101960E94442B1092E40107C065
S11335E01092E4016DE2CE0101960E94442B1F5F0C
S11335F0FFEFEF1AFF0A1530B1F60F90DF91CF916C
S11336001F91FF90EF900895CF93C82F8FB7F89430
S11336101092BF011092C0011092C1011092C20118
S11336208FBF0E94B12960E080E00E94DD2A69EC2E
S113363071E00E94E72BE8EBF1E010821182128224
S1133640138214821092BD018C2F9EDFE091DE0163
S1133650F091DF0110828FB7F89440E95FE561E0F3
S113366070E04093BF015093C0016093C101709317
S1133670C2018FBFCF910895E091DE01F091DF0187
S113368091E090832091BD0130E0F901E854FE4FB0
S11336909081992331F0F901E854FE4F91509083C1
S11336A073DF8FB7F89440E95FE561E070E0409321
S11336B0BF015093C0016093C1017093C2018FBFD9
S11336C00895E091DE01F091DF0191E09083209173
S11336D0BD0130E0F901E854FE4F9081993030F497
S11336E0F901E854FE4F9F5F90834EDF8FB7F89443
S11336F040E95FE561E070E04093BF015093C00191
S11337006093C1017093C2018FBF0895EF92FF923D
S11337100F931F93CF93DF93E091DE01F091DF01CC
S11337201082E091BD01E430C0F4EF5FE093BD018D
S1133730F0E0E854FE4F108227DF8FB7F89440E999
S11337405FE561E070E04093BF015093C001609376
S1133750C1017093C2018FBF35C008EB11E0C8EE00
S1133760DCE00F2EFDEBEF2EF1E0FF2EF02DF80143
S113377061918F01CE010E94063321960E151F051B
S1133780B1F70E94B12961E080E00E94DD2A8093B4
S1133790E80161E080E00E94DD2A6EEB71E00E94A6
S11337A0E72B8FB7F89448E853E160E070E040936A
S11337B0BF015093C0016093C1017093C2018FBFD8
S11337C084E0ADD8DF91CF911F910F91FF90EF90DE
S11337D00895CF92DF92EF92FF928091AC018230F4
S11337E019F481E08093E401C090AF01D12CE12C65
S11337F0F12C61E08BE00E94DD2AA701960162E0D2
S11338000E945F2C1092E4018091AC01813011F48C
S11338108093E401C090AE01D12CE12CF12C61E045
S11338208EE00E94DD2AA701960162E00E945F2CCF
S11338301092E4018091AC01843019F481E080930A
S1133840E401ADEAB1E016968C9116978370159653
S1133850EC911597F0E09DE0899FE00DF11D112496
S1133860E05DFB4FE49114968C91811103C081E0DB
S11338708093B1018091B101E81710F4E093B10194
S1133880C090B101D12CE12CF12C61E080E00E94C8
S1133890DD2AA701960162E00E945F2C1092E401E8
S11338A08091AC01853019F481E08093E401C090EB
S11338B0B201D12CE12CF12C61E083E00E94DD2ADD
S11338C0A701960162E00E945F2C1092E4018091AE
S11338D0AC01863019F481E08093E40161E086E074
S11338E00E94DD2A6BEB71E00E94E72BC090B301CC
S11338F0D12CE12CF12C61E088E00E94DD2AA701A3
S1133900960162E00E945F2C1092E40161E082E083
S11339100E94DD2A6DE20E94642B61E085E00E9432
S1133920DD2A6DE20E94642B8091AC01811103C0F9
S113393081E08093E40161E08DE00E94DD2A6AE386
S11339400E94642B1092E401FF90EF90DF90CF90DF
S113395008958FB7F8941092BF011092C00110928D
S1133960C1011092C2018FBFE091DE01F091DF012D
S113397010820E94B12960E080E00E94DD2A60EBA1
S113398071E00E94E72B1092BD014FB7F894EEEC62
S1133990F1E0ADEAB1E025ED31E081918D93E217DC
S11339A0F307D9F786E08093AC0180E99FE5A1E0B5
S11339B0B0E08093BF019093C001A093C101B09384
S11339C0C2014FBF06CF0895E091DE01F091DF01FF
S11339D081E080838091AC01863039F0823039F007
S11339E031E0813029F430E003C031E101C030E03E
S11339F090E0FC01E355FE4F2081321728F4FC01CE
S1133A00E355FE4F21502083E4DE8FB7F89440E95C
S1133A105FE561E070E04093BF015093C0016093A3
S1133A20C1017093C2018FBF0895E091DE01F0914E
S1133A30DF0181E080838091AC018530A9F084307E
S1133A4079F4EDEAF1E096819370E581F0E02DE000
S1133A50929FE00DF11D1124E05DFB4FE4910AC03B
S1133A60823039F0E9E101C0ECE0813019F4EBE394
S1133A7001C0E7E190E0DC01A355BE4F2C912E1765
S1133A8018F4FD012F5F2083A4DE8FB7F89440E97A
S1133A905FE561E070E04093BF015093C001609323
S1133AA0C1017093C2018FBF08951F93CF93DF9319
S1133AB08091AC018823D9F09FEF980F933019F0CF
S1133AC09093AC0103C082508093AC0182DE8FB727
S1133AD0F89440E95FE561E070E04093BF015093E2
S1133AE0C0016093C1017093C2018FBF1BC01FB797
S1133AF0F894CDEAD1E08E810E943E268D810E9409
S1133B0053268C810E9468268A810E947D268981A1
S1133B100E9492260E94A7260E94AA261FBF80E028
S1133B200E948F14DF91CF911F9108958091AC0171
S1133B308630D8F491E0980F933019F09093AC014B
S1133B4003C08E5F8093AC0144DE8FB7F89440E9E4
S1133B505FE561E070E04093BF015093C001609362
S1133B60C1017093C2018FBF08958FB7F89410926A
S1133B70BF011092C0011092C1011092C2018FBF07
S1133B8080E00C948F140895CF93DF93CDB7DEB704
S1133B902C970FB6F894DEBF0FBECDBF20919B01CA
S1133BA030919C0180919D0190919E01820F931F01
S1133BB08C3221E0920730F08C5291408C3221E01B
S1133BC09207D0F72BE0289FB001299F700D112494
S1133BD06C5F7F4F4BE050E0CE0101960E94CB32E8
S1133BE061E080E00E94DD2A8C872C8130E040E097
S1133BF050E062E0CE010C960E94F42B6AE3CE0101
S1133C000C960E94442B2D8130E040E050E062E0AD
S1133C10CE010C960E94F42B8C858F5F8C872E81AD
S1133C203F8140E050E063E0CE010C960E94F42B0B
S1133C308C858F5F8C872885398540E050E065E06E
S1133C40CE010C960E94F42B8A85811106C064E48F
S1133C50CE010C960E94442B05C060E2CE010C9666
S1133C600E94442B60E086E00E94DD2A8C872B8131
S1133C7030E040E050E062E0CE010C960E94F42B6C
S1133C806DE2CE010C960E94442B2A8130E040E084
S1133C9050E062E0CE010C960E94F42B6CEA71E0D5
S1133CA0CE010C960E94B22B298130E040E050E016
S1133CB062E0CE010C960E94F42B2C960FB6F89479
S1133CC0DEBF0FBECDBFDF91CF9108951092BF012B
S1133CD01092C0011092C1011092C201E091DE0164
S1133CE0F091DF0110820E94B12960E080E00E941F
S1133CF0DD2A67EA71E00E94E72B4FB7F894209120
S1133D003D0130913E012C3281E0380718F060E02B
S1133D1070E001C0B90180913F0190914001821788
S1133D20930748F4845D9E4F861B970B90939E01E6
S1133D3080939D0127C0861B970B90939E018093CF
S1133D409D0120C080913D0190913E01892BC1F4D9
S1133D5061E080E00E94DD2A6CE971E00E94E72BBB
S1133D6080E197E2A0E0B0E08093BF019093C001AE
S1133D70A093C101B093C20184E00C948F14089500
S1133D8003CF08954FBF10929C0110929B0180E0D5
S1133D9090E00E94E332892BA9F2F2CFCF93DF9314
S1133DA0E091DE01F091DF01108220919B013091BE
S1133DB09C0180919D0190919E01280F391F2C3206
S1133DC081E0380730F02C5231402C3281E0380742
S1133DD0D0F78BE0829FE001839FD00D1124C35F55
S1133DE0DF4FCE010E94DB32882329F060E0CE0150
S1133DF00E94E83204C061E0CE010E94E832C4DED1
S1133E00DF91CF910895E091DE01F091DF0181E02F
S1133E10808380919B0190919C01009729F00197E8
S1133E2090939C0180939B01AFCE0895E091DE01B5
S1133E30F091DF0181E0808380E090E00E94E33232
S1133E4040913D0150913E0120919B0130919C0194
S1133E508417950708F4CA0101972817390730F425
S1133E602F5F3F4F30939C0120939B018DCE08958B
S1133E70CF92DF92EF92FF92C0909601D09097017B
S1133E80E12CF12C61E084E00E94DD2AA701960177
S1133E9065E00E945F2CC0909801D0909901E12CBC
S1133EA0F12C61E08AE00E94DD2AA701960165E019
S1133EB00E945F2CFF90EF90DF90CF900895CF92F7
S1133EC0DF92EF92FF928FB7F8941092BF01109295
S1133ED0C0011092C1011092C2018FBFE091DE01B6
S1133EE0F091DF0110821092BF011092C001109274
S1133EF0C1011092C2010E94B12960E080E00E94D9
S1133F00DD2A63E971E00E94E72B80913D019091E5
S1133F103E01892B49F480E090E00E94E332892B32
S1133F2019F480E00E948F1480913F019091400128
S1133F30009739F48BE291E09093A00180939F0164
S1133F4005C001979093A00180939F0180919F01E8
S1133F509091A0012BE0289FB001299F700D11249E
S1133F606C5F7F4F4BE050E081EA91E00E94CB32DE
S1133F709091AB0197FD91958DEC989F812D112423
S1133F80869586958695880F282F220F220F820FFB
S1133F90981B90939A01E090A801F090A901F092E7
S1133FA09901E092980160E08AE00E94DD2A97017D
S1133FB040E050E065E00E945F2C80919A0190E01F
S1133FC0880F991F8D50934F0E94E3327C0183EF39
S1133FD09CE00E94E332E81AF90AF0929701E09219
S1133FE0960161E080E00E94DD2A60E971E00E94B0
S1133FF0E72BC0909A01D12C8FEFC81AD80A0D2C48
S1134000000CEE08FF0861E082E00E94DD2AA701AF
S1134010960161E00E945F2C61E083E00E94DD2A4A
S11340206EE871E00E94E72B61E089E00E94DD2ADE
S11340306CE871E00E94E72B1BDF8FB7F89440E92E
S11340405FE561E070E04093BF015093C00160936D
S1134050C1017093C2018FBFFF90EF90DF90CF90AA
S11340600895E091DE01F091DF0181E08083809189
S113407096019091970101979093970180939601EF
S1134080809198019091990101979093990180935F
S11340909801EEDE8FB7F89440E95FE561E070E0E7
S11340A04093BF015093C0016093C1017093C2015A
S11340B08FBF0895E091DE01F091DF0181E08083FC
S11340C08091960190919701019690939701809326
S11340D0960180919801909199010196909399018C
S11340E080939801C5DE8FB7F89440E95FE561E0FD
S11340F070E04093BF015093C0016093C10170937D
S1134100C2018FBF0895CF92DF92EF92FF92809108
S11341109401909195018131974230F080E197E2CA
S11341209093950180939401C0909401D09095014F
S1134130E12CF12C61E089E00E94DD2AA7019601BF
S113414065E00E945F2CFF90EF90DF90CF90089580
S11341508FB7F8941092BF011092C0011092C10160
S11341601092C2018FBFE091DE01F091DF01108255
S113417081EF9CE00E94E3329C01A8EEB3E00E9430
S11341803E3020ED37E040E050E00E9400303093B4
S11341909501209394010E94B12960E080E00E947F
S11341A0DD2A6AE671E00E94E72B61E080E00E946C
S11341B0DD2A60E671E00E94E72BA5DF8FB7F89453
S11341C040E95FE561E070E04093BF015093C001B6
S11341D06093C1017093C2018FBF0895E091DE0125
S11341E0F091DF0181E080838091940190919501A9
S11341F0803127E2920728F40196909395018093E9
S1134200940181DF8FB7F89440E95FE561E070E0E5
S11342104093BF015093C0016093C1017093C201E8
S11342208FBF0895E091DE01F091DF0181E080838A
S113423080919401909195018B30910528F001971C
S113424090939501809394015EDF8FB7F89440E9D1
S11342505FE561E070E04093BF015093C00160935B
S1134260C1017093C2018FBF0895CF92DF92EF9284
S1134270FF928091940190919501813A9F4030F092
S113428080EA9FE09093930180939201C090920101
S1134290D0909301E12CF12C61E08AE00E94DD2AA8
S11342A0A701960164E00E945F2CFF90EF90DF90DD
S11342B0CF9008958FB7F8941092BF011092C00167
S11342C01092C1011092C2018FBFE091DE01F09102
S11342D0DF0110828FEE9CE00E94E3329C01A8EE85
S11342E0B3E00E943E3020ED37E040E050E00E9411
S11342F0003030939301209392010E94B12960E031
S113430080E00E94DD2A63E571E00E94E72B61E012
S113431080E00E94DD2A68E471E00E94E72BA5DFBB
S11343208FB7F89440E95FE561E070E04093BF0126
S11343305093C0016093C1017093C2018FBF08956F
S1134340E091DE01F091DF0181E0808380919201B0
S1134350909193018230910528F0019790939301F5
S11343608093920182DF8FB7F89440E95FE561E0C2
S113437070E04093BF015093C0016093C1017093FA
S1134380C2018FBF0895E091DE01F091DF0181E069
S113439080838091920190919301803A2FE092075B
S11343A028F4019690939301809392015EDF8FB776
S11343B0F89440E95FE561E070E04093BF015093F9
S11343C0C0016093C1017093C2018FBF0895CF9261
S11343D0DF92EF92FF9280919101883824F488E86B
S11343E08093910105C089371CF088E7809391017F
S11343F0C09091010C2C000CDD08EE08FF0861E070
S113440089E00E94DD2AA701960164E00E945F2CE6
S1134410FF90EF90DF90CF9008958FB7F89440E924
S11344205FE561E070E04093BF015093C001609389
S1134430C1017093C2018FBFE091DE01F091DF01F1
S113444010828EEE9CE00E94DB328093910189D72A
S113445060E080E00E94DD2A6EE371E00E94E72BB9
S113446061E080E00E94DD2A64E371E00E94E72BB2
S1134470AECF08958FB7F89440E95FE561E070E04E
S11344804093BF015093C0016093C1017093C20176
S11344908FBFE091DE01F091DF0181E080838091A4
S11344A0910189381CF081508093910190CF089537
S11344B08FB7F89440E95FE561E070E04093BF0195
S11344C05093C0016093C1017093C2018FBFE0910A
S11344D0DE01F091DF0181E08083809191018837D2
S11344E01CF48F5F8093910172CF0895CF92DF9275
S11344F0EF92FF92CF93DF93CAE8D1E0C880D980CE
S1134500E12CF12C60E08BE00E94DD2AA7019601EA
S113451065E00E945F2CCA80DB80E12CF12C61E015
S113452081E00E94DD2AA701960165E00E945F2CCC
S113453080918E0181110FC060E08AE00E94DD2A23
S11345406AE20E94642B61E080E00E94DD2A60E25E
S11345500E94642B0EC060E08AE00E94DD2A60E2C3
S11345600E94642B61E080E00E94DD2A6AE20E94DE
S1134570642BDF91CF91FF90EF90DF90CF9008955F
S1134580EF92FF920F931F93CF93DF931F92CDB7B8
S1134590DEB78FB7F8941092BF011092C001109249
S11345A0C1011092C2018FBFE091DE01F091DF01E1
S11345B01082D7D660E080E00E94DD2A8983809152
S11345C03D0190913E01892B61F480E090E00E94CE
S11345D0E332892B31F46DE2CE0101960E94442B23
S11345E06FC080913F0190914001009739F48BE2B4
S11345F091E09093A00180939F0105C0019790934F
S1134600A00180939F0180919F019091A0012BE0D4
S1134610289FB001299F700D11246C5F7F4F4BE0E0
S113462050E081EA91E00E94CB3201EA11E0F80106
S11346302581368140E050E063E0CE0101960E947E
S1134640F42B6AE3CE0101960E94442BF8012781E2
S1134650308540E050E065E0CE0101960E946C2C6C
S1134660F801828587FD8195EFE8F1E097E68902FC
S1134670912D11249595959587FD93959083990F88
S1134680292F220F220F920F182F191B118385EF48
S11346909CE00E94E3320F2EFAE8EF2EF1E0FF2EA9
S11346A0F02DF70191838083812F90E0880F991F6B
S11346B08D50934F0E94E332F7019383828316DF78
S11346C010928E010F90DF91CF911F910F91FF9067
S11346D0EF900895CF92DF92EF92FF920F931F9382
S11346E0CF93DF9300D0CDB7DEB780910402882347
S11346F009F495C01092040234D660E080E05DD7DE
S11347008A83809103028A3031F46BE271E0CE0136
S113471002960E94B22B809103028130D1F4209141
S113472007023091080240E050E063E0CE010296B7
S11347300E94F42B6AE3CE010296A6D720912F01A2
S11347403091300140E050E065E0CE0102960E94D5
S11347506C2C61E087E031D789838091020287FD68
S1134760819507E68002012D11240595059587FDA5
S113477003950F2EFFE8EF2EF1E0FF2EF02DF70149
S11347800083202F220F922F990F990F920F182F29
S1134790191B118310928E0185EF9CE00E94E33275
S11347A00F2EFAE8CF2EF1E0DF2EF02DF6019183E3
S11347B08083812F90E0880F991F8D50934F0E9422
S11347C0E332F6019383828360E3600FCE010196A6
S11347D05BD7F7016181605DCE01019655D768E230
S11347E071E0CE010196BED7009105021091060238
S11347F0112344F46DE2CE01019646D7119501953B
S1134800110904C06BE2CE0101963ED79801110F45
S1134810440B550B64E0CE010196E6D767DE0F909A
S11348200F90DF91CF911F910F91FF90EF90DF9048
S1134830CF900895E091DE01F091DF011082809124
S11348408E01823020F081E080938E010BC08111B3
S113485009C060918A0170918B0185EF9CE00E94F0
S1134860F9320DC060918C0170918D01809190019D
S113487090E0880F991F8D50934F0E94F9329091C8
S11348808E0181E0891B80938E0130CE0895E091E2
S1134890DE01F091DF0181E0808380918E0190E060
S11348A0FC01EE0FFF1FE657FE4F208131812115D9
S11348B0310549F0880F991FFC01E657FE4F21503E
S11348C031093183208312CE0895E091DE01F09105
S11348D0DF0181E0808380918E0190E0FC01EE0F86
S11348E0FF1FE657FE4F2081318129394AE33407FF
S11348F050F0880F991FFC01E657FE4F88E99AE3B0
S1134900918380830DC028394AE3340748F4880F23
S1134910991FFC01E657FE4F2F5F3F4F31832083E1
S1134920E5CD089580918901811107C061E089E096
S113493044D664E271E04BC7089561E089E03DD656
S113494060E271E044D781E08093890108958FB7D4
S1134950F8941092BF011092C0011092C1011092FC
S1134960C2018FBFE091DE01F091DF0110828DEE74
S11349709CE00E94DB3280938901F3D460E080E004
S11349801CD660E171E023D761E080E016D666E0D2
S113499071E01DD7C7DF8FB7F89440E95FE561E0A8
S11349A070E04093BF015093C0016093C1017093C4
S11349B0C2018FBF08958FB7F89440E95FE561E0C5
S11349C070E04093BF015093C0016093C1017093A4
S11349D0C2018FBFE091DE01F091DF0110821092DD
S11349E08901A0CF08958FB7F89440E95FE561E0AD
S11349F070E04093BF015093C0016093C101709374
S1134A00C2018FBFE091DE01F091DF01108281E0ED
S1134A108093890187CF08950E94A6020E94FA1705
S1134A200C941F0408950E944B180C94D00308950D
S1134A300C94CF050895DF9ADE9A85E18A95F1F703
S1134A400000DE9885E18A95F1F70000DF9808956B
S1134A50DE9885E18A95F1F70000DF9A85E18A9571
S1134A60F1F70000DE9A0895DF9A81E08093DD017A
S1134A7085E18A95F1F70000CE9B1092DD01DF9865
S1134A8085E18A95F1F700000895DE98EDDFDE9A5E
S1134A900895DE9AE9CF0895D698E6DFD69A089568
S1134AA0D69898E080E0DF9A25E12A95F1F7000096
S1134AB0880FCE998F5FDF9825E12A95F1F70000E2
S1134AC0915089F7D69A0895CF93DF93D82FC8E0F1
S1134AD0DD2314F4DE9A01C0DE98C6DFDD0FC15079
S1134AE0B9F7DF91CF910895A6DF80EDEDDFD4CF44
S1134AF00895FF920F931F93CF93DF93FFB6F8941B
S1134B00F3DF80E0E1DFC8DFC6ECD1E00EEC11E0BA
S1134B108991DADFC1DFC017D107D1F799DFFFBE72
S1134B20DF91CF911F910F91FF900895FF920F9302
S1134B301F93CF93DF93FFB6F894D6DF80E0C4DFF2
S1134B40ABDF79DF81EDC0DFA7DFAADF8093D5017A
S1134B50C6EDD1E00DED11E098DFA2DF8993C01717
S1134B60D107D1F796DF74DFFFBEDF91CF911F919C
S1134B700F91FF900895CF93CFB7F894D7DFA5EDA9
S1134B80B1E08C91EEECF1E0982F96959695969580
S1134B909E71292F220F220F920F8F70890F80830D
S1134BA011968C911197982F9695969596959E713E
S1134BB0292F220F220F920F8F70890F8183129653
S1134BC02C911297822F90E09595879595958795CE
S1134BD095958795959587958370880F982F990F4C
S1134BE0990F890F2F70820F828313968C911397DC
S1134BF08770838314962C911497822F90E0959557
S1134C0087959595879595958795959587958370BF
S1134C10880F982F990F990F890F2F70820F848313
S1134C2015968C91159784FB992790F9990F292F44
S1134C30220F220F920F8F70890F858316968C9105
S1134C40982F9695969596959E71292F220F220F4F
S1134C50920F8F70890F8683CFBFCF9108959FB72E
S1134C60F894E5EDF1E0A6ECB1E02DED31E08191B1
S1134C708D93E217F307D9F79FBF08959DEC899FA1
S1134C80912D1124969596959695392F330F232FB0
S1134C90220F220F230F821B20E1929F800D1124EB
S1134CA08093CC0108959DEC899F912D11249695B4
S1134CB096959695392F330F232F220F220F230F0A
S1134CC0821B20E1929F800D11248093CB010895D3
S1134CD09DEC899F912D1124969596959695392F43
S1134CE0330F232F220F220F230F821B20E1929FC9
S1134CF0800D11248093CA0108959DEC899F912D04
S1134D001124969596959695392F330F232F220FBC
S1134D10220F230F821B20E1929F800D1124809388
S1134D20C80108959DEC899F912D1124969596951F
S1134D309695392F330F232F220F220F230F821B17
S1134D4020E1929F800D11248093C7010895109251
S1134D50C6010895CECE0895D79AD69ADF9ADE9AE0
S1134D600ADF7DDF8091D001883110F01092C801F4
S1134D708091CF018C3310F01092C7018091CE0145
S1134D808C3310F01092C60183E18093CD01B1CE33
S1134D90089580912C0190912D01019729F0909311
S1134DA02D0180932C01089588EE93E090932D01BA
S1134DB080932C01E0DE8091C5018F5F823018F46E
S1134DC08093C50102C01092C5018091CE019091DB
S1134DD02B01891729F080932B0181E08093C40172
S1134DE00895EF92FF920F931F93CF93DF9329D6E9
S1134DF080E1D6D29093E3018093E20187E190E0D1
S1134E0008D7EC011ED0D093DF01C093DE010E94CD
S1134E109B2FE12CFF24F39400E110E023E040E019
S1134E2060E875E280E090E0F8D69093E101809329
S1134E30E00192DFDF91CF911F910F91FF90EF90EE
S1134E4008951F93CF93DF93EC01E4E6F0E08081B3
S1134E508081807F8083E5E6F0E080818F608083BD
S1134E608FEF898B188A1F861E861D861A861986DF
S1134E708B871C861D8A1C8A81E0888380E190E0F0
S1134E80CAD69B8B8A8B84E090E0C3D6FC01118246
S1134E9014E11283138210829A83898384E090E060
S1134EA0B8D6FC0111821283138210829C838B83F7
S1134EB084E090E0AED6FC0111821283138210824A
S1134EC09E838D8384E090E0A4D6FC01118212833A
S1134ED01382108298878F83DF91CF911F91089559
S1134EE020E030E080E070E0AB01022E02C0559576
S1134EF047950A94E2F740FD8F5F2F5F3F4F2430C0
S1134F00310591F70895DC013FB7F89454968C91DC
S1134F10549791E0980F903130F090519031E8F728
S1134F2091EF980F9F7055962C915597291759F02A
S1134F305296ED91FC915397E80FF11D60835496BE
S1134F409C933FBF08953FBF0895FF920F931F9313
S1134F50CF93DF93EC011B85111116C06C8566237A
S1134F6069F08D859E858135910518F488818823A3
S1134F7019F08881882311F0CE01C5DF1C861E86B6
S1134F801D86188A1F8640C0612FAADFF82E0C8563
S1134F90602FCE01A5DF8F1510F41C8702C01013FB
S1134FA02FC08D859E85813D27E0920718F40196D8
S1134FB09E878D8788818823D1F08D859E85803D4D
S1134FC0974010F1612FCE019EDF8F85988984363A
S1134FD0910540F40196988B8F8788E097E09E872F
S1134FE08D8712C086EC97E09E878D870DC08D85D6
S1134FF09E858035910541F4612FCE0184DF04C084
S11350001E861D86188A1F86DF91CF911F910F91EE
S1135010FF900895CF93DF931F92CDB7DEB7FC01C5
S1135020809163008F708983168A898183FB882726
S113503080F9A181B2819FB7F8948823A9F01196D1
S11350408C911197882331F0815011968C9311978C
S1135050811125C013968C911397882301F113961F
S11350601C9213971C921BC011968C911197129647
S11350702C911297821730F48F5F11968C931197AD
S1135080821768F013968C911397811108C081E000
S113509013968C9313978C9311962C9311971396C4
S11350A08C919FBF9689892B868B898182FB882767
S11350B080F9A381B4819FB7F8948823A9F011964D
S11350C08C911197882331F0815011968C9311970C
S11350D0811125C013968C911397882301F113969F
S11350E01C9213971C921BC011968C9111971296C7
S11350F02C911297821730F48F5F11968C9311972D
S1135100821768F013968C911397811108C081E07F
S113511013968C9313978C9311962C931197139643
S11351208C919FBF90E0880F991F2689822B868BD4
S1135130898186958170A581B6819FB7F89488236B
S1135140A9F011968C911197882331F08150119612
S11351508C931197811125C013968C9113978823F2
S113516001F113961C9213971C921BC011968C91FB
S1135170119712962C911297821730F48F5F119623
S11351808C931197821768F013968C911397811161
S113519008C081E013968C9313978C9311962C93EB
S11351A0119713968C919FBF90E0880F991F880FD9
S11351B0991F2689822B868B89818170A781B0856E
S11351C09FB7F8948823A9F011968C91119788239E
S11351D031F0815011968C931197811125C013964B
S11351E08C911397882301F113961C9213971C92A8
S11351F01BC011968C91119712962C9112978217BD
S113520030F48F5F11968C931197821768F0139680
S11352108C911397811108C081E013968C93139796
S11352208C9311962C93119713968C919FBF90E0B9
S1135230880F991F880F991F880F991F2689822B21
S1135240868B2385281769F0218532852115310540
S113525031F02150310932872187232B91F4838740
S113526010C0818592858832910528F40196928731
S11352708187889730F0CF0128E230E03287218798
S113528064DE0F90DF91CF910895FC012FB7F8945D
S113529085899489891304C0DB011C9280E022C0B3
S11352A0A289B389A80FB11D8C91DB018C938589E8
S11352B091E0980F903130F090519031E8F791EFF0
S11352C0980F9F70958BFB018081813059F082305B
S11352D049F0843021F0883021F085E003C083E078
S11352E001C084E02FBF0895282F22952F709BB30F
S11352F0907F922B9BBBDC9A93E09A95F1F7000088
S1135300DC9893E09A95F1F700008F709BB3907F3F
S1135310892B8BBBDC9A83E08A95F1F70000DC983B
S113532093E09A95F1F700000895CF93CFB7F894DE
S1135330DD98E7ECF0E03197F1F700C00000D4DF2E
S1135340CFBFCF910895CF93CFB7F894DD9AE7EC10
S1135350F0E03197F1F700C00000C6DFCFBFCF9176
S113536008958091F501882371F080E020E2E091B6
S1135370F301F091F401E80FF11D20838F5F909108
S1135380F5018917A0F3EBEEF1E01082118212828D
S1135390138214821582168217821092E8010895EE
S11353A00F931F93CF93DF939AB39F609ABB9BB3E2
S11353B09F609BBBD49ADC9AD59ADD9A2FEF39E68D
S11353C098E1215030409040E1F700C00000809304
S11353D02E01982F990F9093F50190E0880F991F53
S11353E01AD49093F4018093F3011092E501EBEE4B
S11353F0F1E0F093EA01E093E9011092E8011082F0
S113540011821282138214821582168217821092DC
S1135410E7011092E6011092E40188E286DFEFE3EF
S1135420FFE13197F1F700C0000088E27EDF8FE3EF
S11354309FE10197F1F700C000008CE076DF81E086
S113544074DFEFE3FFE13197F1F700C0000086E07D
S11354506CDF82E06ADF8FE39FE10197F1F700C020
S1135460000080E862DFEFE3FFE13197F1F700C06D
S1135470000080E45ADF8FE99FE00197F1F700C054
S11354800000C4E6D4E004E714E0FE0184915BDF8D
S1135490F0E5FA95F1F72196C017D107B1F780E846
S11354A044DF8FE99FE00197F1F700C0000059DF66
S11354B060E070E08DE59BE20E946032DF91CF9165
S11354C01F910F9108958091E6019091E701019653
S11354D0811524E0920728F49093E7018093E60174
S11354E004C01092E7011092E6018091E5018F5FFC
S11354F08093E5019091E5018091F501981750F0B2
S11355001092E5018BEE91E09093EA018093E9011A
S113551080E80BDF9091E50180912E01981308C07B
S11355208FEE91E09093EA018093E90180ECFDDE37
S113553087EC90E00197F1F700C000008091E5014D
S1135540E091F301F091F401E80FF11DE081EE2305
S113555024F4F0E0EC50FC4FE4918091E501A0913B
S1135560E901B091EA0160912E013ED5292F8D9178
S11355709D910D90BC91A02D04C0B695A7959795CB
S113558087952A95D2F780FF08C08091E601909113
S1135590E7018115924008F4E0E28E2FD4CE0895FD
S11355A0FC0190812091F501921730F0921B9083B9
S11355B02091F5019217D0F70895CF93DF931F92AE
S11355C0CDB7DEB790912E01699F800D1124898398
S11355D0CE010196E5DF89810F90DF91CF91089587
S11355E0FB012081222331F1FC01808160912E0195
S11355F0FBD4292FE82FF0E0EE0FFF1FEE0FFF1F63
S1135600E551FE4F81E090E0A0E0B0E004C0880FD7
S1135610991FAA1FBB1F2A95D2F74081518162812D
S11356207381842B952BA62BB72B80839183A28324
S1135630B3830895FC01808160912E01D5D4292F74
S1135640E82FF0E0EE0FFF1FEE0FFF1FE551FE4FB6
S113565081E090E0A0E0B0E004C0880F991FAA1F89
S1135660BB1F2A95D2F780959095A095B09540815F
S113567051816281738184239523A623B723808378
S11356809183A283B38308951F93CF93DF93EC0197
S1135690162F86DF64EE71E0CE01A2DF8881E091EF
S11356A0F301F091F401E80FF11D108388818F5FFD
S11356B08883DF91CF911F910895682F88EE91E040
S11356C0E3DF81E090E00895CF93DF931F92CDB79D
S11356D0DEB78983CE010196D7DF0F90DF91CF919A
S11356E00895EF92FF920F931F93CF93DF93EC01F2
S11356F08B01E090F501EA94F12C8FEFE81AF80A97
S1135700E60EF71E17C0CE014BDF64EE71E0CE014A
S113571067DFF80181918F019881E091F301F091A5
S1135720F401E90FF11D808388818F5F88830E1552
S11357301F0521F0F80180818111E5CFDF91CF9120
S11357401F910F91FF90EF900895CF93DF931F92D5
S1135750CDB7DEB78983CE010196C3DF0F90DF9109
S1135760CF910895DF92EF92FF920F931F93CF93FF
S1135770DF93EC018B01E090F501EA94F12C8FEFBB
S1135780E81AF80AE60EF71E16C0CE0109DF64EE29
S113579071E0CE0125DF8881E091F301F091F401FD
S11357A0E80FF11DD08288818F5F88830F5F1F4FC0
S11357B00E151F0521F0F801D490D110E6CFDF912A
S11357C0CF911F910F91FF90EF90DF900895CF93A9
S11357D0DF931F92CDB7DEB78983CE010196C2DF76
S11357E00F90DF91CF9108958F929F92AF92BF92C5
S11357F0CF92DF92EF92FF920F931F93CF93DF9399
S11358001F92CDB7DEB75C01062F69017A015523DB
S11358105CF46DE239DF0150F094E094D094C094CC
S1135820C11CD11CE11CF11CF5018081800F808317
S1135830C501B6DEF501808181508983002389F199
S11358400F2EFAE08F2E912CA12CB12CF02DC70134
S1135850B601A5019401F6D3162F898188232CF46F
S113586090912E01990F890F898364EE71E0CE0126
S11358700196B6DEE091F301F091F40189819FEF86
S1135880980F9983E80FF11D87FDFA95105D108339
S1135890C701B601A5019401D5D369017A0101506C
S11358A0B1F60F90DF91CF911F910F91FF90EF9080
S11358B0DF90CF90BF90AF909F908F900895CF933B
S11358C0DF931F92CDB7DEB78983CE0101968CDFBB
S11358D00F90DF91CF9108956F927F928F929F9254
S11358E0AF92BF92CF92DF92EF92FF920F931F93EA
S11358F0CF93DF931F92CDB7DEB78C01B62E69012B
S11359007A01552314F470DF86C0FC018081860F70
S11359108083C80145DEF801108111501983C70145
S1135920B6012AE030E040E050E08CD3062F11238A
S11359302CF480912E01880F180F198364EE71E006
S1135940CE0101964DDEE091F301F091F4018981DD
S11359509FEF980F9983E80FF11D87FDFA95005D7D
S11359600083C701B6012AE030E040E050E06AD38A
S113597069017A010EEF0B0DF1E0BF1609F44BC07B
S11359800F2EFAE08F2E912CA12CB12CF02D6894BF
S1135990772475F801C0082FC701B601A501940149
S11359A051D3162F662E898188232CF490912E01D1
S11359B0990F890F898364EE71E0CE01019610DEA0
S11359C0611010C0C114D104E104F10459F48981B7
S11359D0E091F301F091F401E80FF11D87FDFA95D0
S11359E070820BC08981E091F301F091F401E80F1A
S11359F0F11D87FDFA95105D10838981815089839B
S1135A00C701B601A50194011DD369017A018FEF85
S1135A10800F0111C0CF0F90DF91CF911F910F9193
S1135A20FF90EF90DF90CF90BF90AF909F908F90BA
S1135A307F906F90089580912E01880F8093F501D7
S1135A400895CF93DF9300D0CDB7DEB713BE83B7ED
S1135A50886083BF83B78F7B83BF83B78F7D83BF0A
S1135A6083B78F7E83BF8EE390E09A838983898195
S1135A709A81029770F481E090E09A83898383B7D6
S1135A808B7F83BF83B78D7F83BF83B7816083BFE1
S1135A906AC089819A81099770F488E090E09A83BA
S1135AA0898383B78B7F83BF83B7826083BF83B7C8
S1135AB08E7F83BF58C089819A81819770F480E278
S1135AC090E09A83898383B78B7F83BF83B7826097
S1135AD083BF83B7816083BF46C089819A81813443
S1135AE0910570F480E490E09A83898383B784609D
S1135AF083BF83B78D7F83BF83B78E7F83BF33C05C
S1135B0089819A818138910570F480E890E09A83C4
S1135B10898383B7846083BF83B78D7F83BF83B753
S1135B20816083BF20C089819A818130914070F463
S1135B3080E091E09A83898383B7846083BF83B7CD
S1135B40826083BF83B78E7F83BF0DC080E094E003
S1135B509A83898383B7846083BF83B7826083BF5A
S1135B6083B7816083BF83B7806883BF12BE2981F6
S1135B703A81A8EEB3E082D29B01AC0160E074E20A
S1135B8084EF90E03DD2215021BF86B78D7F86BF40
S1135B9086B78E7F86BF87B7826087BF0F900F90CE
S1135BA0DF91CF9108951F920F920FB60F92112497
S1135BB00BB60F922F933F934F935F936F937F9303
S1135BC08F939F93AF93BF93EF93FF9387B78D7F8B
S1135BD087BF789478DC8091DE019091DF011ADA36
S1135BE0D8D80E94132587B7826087BFFF91EF91B1
S1135BF0BF91AF919F918F917F916F915F914F91E1
S1135C003F912F910F900BBE0F900FBE0F901F90DE
S1135C10189529C3089527C308954F925F926F92F0
S1135C207F928F929F92AF92BF92CF92DF92EF9228
S1135C30FF920F931F93CF93DF9300D0CDB7DEB7BE
S1135C4049832A832093F601DC01CB01880F991F35
S1135C50AA1FBB1F880F991FAA1FBB1F9C01AD0160
S1135C60220F331F441F551F220F331F441F551F7C
S1135C7060E074E284EF90E0C3D1215031093093A5
S1135C80900029B91AB8498139812A819A818A8177
S1135C9040FB662460F8712C31FB882480F8912C39
S1135CA08628972820FBAA24A0F8B12CAA0CBB1C98
S1135CB08A289B2891FBCC24C0F8D12CCC0CDD1C69
S1135CC0CC0CDD1CC828D92882FB442440F8512C74
S1135CD0440C551C440C551C4C285D2840929500DE
S1135CE0549A539A579A802F912F95DF9093FE01DF
